:0400000076EF00F0A7
:10000800FACF23F0FBCF24F0E9CF25F0EACF26F092
:10001800E1CF27F0E2CF28F0D9CF29F0DACF2AF0C4
:10002800F3CF2BF0F4CF2CF0F6CF2DF0F7CF2EF046
:10003800F8CF2FF0F5CF30F0F2BAF2A407D0F2944F
:10004800D768640ED66EA8EC3CF02FD0F2B8F2A2B6
:1000580008D0F292010E01011E6F010E0101116F0D
:1000680024D0F0B8F0A208D0F092010E01011E6F62
:10007800010E0101026F19D0F2B6F2A004D0FBEC18
:1000880032F0F29012D09DB09EA003D073EC3BF0FA
:100098000CD09DBA9EAA03D003EC3FF006D09DB8C1
:1000A8009EA803D08CEC3BF000D030C0F5FF2FC0E9
:1000B800F8FF2EC0F7FF2DC0F6FF2CC0F4FF2BC0B1
:1000C800F3FF2AC0DAFF29C0D9FF28C0E2FF27C002
:1000D800E1FF26C0EAFF25C0E9FF24C0FBFF23C0DB
:1000E800FAFF11000AEF2EF0000E0001ED6F000E6E
:1000F800EC6F0101A7A102D0010E01D0000E000192
:10010800E96F010172A102D0010E01D0000E0001B9
:10011800EE6F010171A102D0010E01D0000E0001A5
:10012800EA6F0101A0A102D0010E01D0000E00016A
:10013800EB6FD7EC2EF0E806D8A437D0A90E000153
:10014800916F010E0001926FF70E0001936FFF0E81
:100158000001946F000193519411D8A4000E956F7B
:10016800D90E0001966FFF0E0001976F000196519E
:100178009711D8A4000E986F6A0E0001996FFF0EB0
:1001880000019A6F5C0E00019B6FFF0E00019C6FCF
:1001980000019B519C11D8A4000E9D6F220EDEEC2D
:1001A8002CF00C0E1FEC03F012005BEC30F0E806AC
:1001B800D8A437D0A90E0001916F010E0001926FEB
:1001C800F70E0001936FFF0E0001946F0001935129
:1001D8009411D8A4000E956FCF0E0001966FFF0EF4
:1001E8000001976F000196519711D8A4000E986FDF
:1001F8006A0E0001996FFF0E00019A6F540E0001FC
:100208009B6FFF0E00019C6F00019B519C11D8A4AD
:10021800000E9D6F230EDEEC2CF0180E1FEC03F081
:10022800120001016E510001E46FE36B01016F518F
:100238000001E3250001EC6F0101000E0001E4213B
:100248000001ED6F0001EA510001D8B49ED0000111
:10025800EE510001D8A40ED0ECC0C2F0EDC0C3F03E
:1002680094EC1BF00001E36F0001E3510001E56F1E
:10027800E66B06D0000E0001E66F010EE56F00D0B8
:10028800E5C0EFF00001EF510001D8B447D0BCEC55
:100298003EF0800E01010119D8A43AD0070E1FECD8
:1002A80003F0000E41EC37F0A90E0001916F010E2A
:1002B8000001926F000E0001936F000E0001946F11
:1002C800000E0001956F000E0001966F000E0001F0
:1002D800976F000E0001986F6A0E0001996FFF0E6C
:1002E80000019A6F660E00019B6FFF0E00019C6F64
:1002F80000019B519C11D8A4000E9D6F250EDEECC9
:100308002CF001015B05D8A456D11BEC3AF053D16F
:10031800070E1FEC03F05DEC39F04DD1A90E00017A
:10032800916F010E0001926FF70E0001936FFF0E9F
:100338000001946F000193519411D8A4000E956F99
:10034800E80E0001966FFF0E0001976F00019651AD
:100358009711D8A4000E986F6A0E0001996FFF0ECE
:1003680000019A6F610E00019B6FFF0E00019C6FE8
:1003780000019B519C11D8A4000E9D6F260EDEEC47
:100388002CF00C0E1FEC03F016D10001EE51000109
:10039800D8A407D0ECC0C2F0EDC0C3F094EC1BF0B9
:1003A80002D01AEC3FF00001E36F0001E3510001B5
:1003B800E76FE86B00D0E7C0EFF00001EF510001F4
:1003C800D8B4C2D0BCEC3EF0800E01010119D8A40B
:1003D800B5D0A6EC3EF001012205D8A475D00001E5
:1003E800E905D8A43AD0070E1FEC03F0000E41EC43
:1003F80037F0A90E0001916F010E0001926F000EF7
:100408000001936F000E0001946F000E0001956FBC
:10041800000E0001966F000E0001976F000E00019C
:10042800986F6A0E0001996FFF0E00019A6F650EB2
:1004380000019B6FFF0E00019C6F00019B519C11F6
:10044800D8A4000E9D6F200EDEEC2CF001015B0598
:10045800D8A4B1D01BEC3AF0AED0110E1FEC03F0CB
:10046800A90E0001916F010E0001926FF70E0001B5
:10047800936FFF0E0001946F000193519411D8A45B
:10048800000E956FE80E0001966FFF0E0001976F42
:10049800000196519711D8A4000E986F6A0E0001BA
:1004A800996FFF0E00019A6F600E00019B6FFF0E9F
:1004B80000019C6F00019B519C11D8A4000E9D6FF8
:1004C800210EDEEC2CF077D0070E1FEC03F0000EA7
:1004D80041EC37F0A90E0001916F010E0001926FF7
:1004E800000E0001936F000E0001946F000E0001D2
:1004F800956F000E0001966F000E0001976F000EB9
:100508000001986F6A0E0001996FFF0E00019A6F43
:10051800650E00019B6FFF0E00019C6F00019B514F
:100528009C11D8A4000E9D6F200EDEEC2CF001016A
:100538005B05D8A440D01BEC3AF03DD0070E1FEC69
:1005480003F05DEC39F037D0A90E0001916F010E70
:100558000001926FF70E0001936FFF0E0001946F78
:10056800000193519411D8A4000E956FE80E000174
:10057800966FFF0E0001976F000196519711D8A44E
:10058800000E986F6A0E0001996FFF0E00019A6FB6
:10059800600E00019B6FFF0E00019C6F00019B51D4
:1005A8009C11D8A4000E9D6F210EDEEC2CF00C0ED1
:1005B8001FEC03F000D00001EB510001D8B4120089
:1005C800A1C19CF0A2C19DF000019E6B9F6B2EEC17
:1005D80034F0E806D8A41200A90E0001916F010EAC
:1005E8000001926F000E0001936F000E0001946FDE
:1005F800000E0001956F000E0001966F000E0001BD
:10060800976F000E0001986F6A0E0001996FFF0E38
:1006180000019A6F530E00019B6FFF0E00019C6F43
:1006280000019B519C11D8A4000E9D6F270EDEEC93
:100638002CF0120012000001676F58D2CC0E000196
:10064800616F010E606F080E0001626F7CEC31F083
:10065800CC0E0001616F030E606F040E0001626F23
:100668007CEC31F0030EECEC31F01200CC0E000102
:10067800616F010E606F080E0001626F7CEC31F053
:10068800CC0E0001616F030E606F040E0001626FF3
:100698007CEC31F0020EECEC31F01200CC0E0001D3
:1006A800616F010E606F080E0001626F7CEC31F023
:1006B800CC0E0001616F030E606F040E0001626FC3
:1006C8007CEC31F0060EECEC31F01200CC0E00019F
:1006D800616F010E606F080E0001626F7CEC31F0F3
:1006E800CC0E0001616F030E606F040E0001626F93
:1006F8007CEC31F0050EECEC31F01200CC0E000170
:10070800616F010E606F080E0001626F7CEC31F0C2
:10071800CC0E0001616F030E606F040E0001626F62
:100728007CEC31F0040EECEC31F01200CC0E000140
:10073800616F010E606F080E0001626F7CEC31F092
:10074800CC0E0001616F030E606F040E0001626F32
:100758007CEC31F0070EECEC31F01200CC0E00010D
:10076800616F010E606F080E0001626F7CEC31F062
:10077800CC0E0001616F030E606F040E0001626F02
:100788007CEC31F0080EECEC31F01200CC0E0001DC
:10079800616F010E606F080E0001626F7CEC31F032
:1007A800CC0E0001616F030E606F040E0001626FD2
:1007B8007CEC31F0090EECEC31F01200CC0E0001AB
:1007C800616F010E606F080E0001626F7CEC31F002
:1007D800CC0E0001616F030E606F040E0001626FA2
:1007E8007CEC31F00A0EECEC31F01200CC0E00017A
:1007F800616F010E606F080E0001626F7CEC31F0D2
:10080800CC0E0001616F030E606F040E0001626F71
:100818007CEC31F00B0EECEC31F01200CC0E000148
:10082800616F010E606F080E0001626F7CEC31F0A1
:10083800CC0E0001616F030E606F040E0001626F41
:100848007CEC31F00C0EECEC31F01200CC0E000117
:10085800616F010E606F080E0001626F7CEC31F071
:10086800CC0E0001616F030E606F040E0001626F11
:100878007CEC31F00E0EECEC31F01200CC0E0001E5
:10088800616F010E606F080E0001626F7CEC31F041
:10089800CC0E0001616F030E606F040E0001626FE1
:1008A8007CEC31F00D0EECEC31F01200CC0E0001B6
:1008B800616F010E606F080E0001626F7CEC31F011
:1008C800CC0E0001616F030E606F040E0001626FB1
:1008D8007CEC31F0130EECEC31F01200CC0E000180
:1008E800616F010E606F080E0001626F7CEC31F0E1
:1008F800CC0E0001616F030E606F040E0001626F81
:100908007CEC31F0140EECEC31F01200CC0E00014E
:10091800616F010E606F080E0001626F7CEC31F0B0
:10092800CC0E0001616F030E606F040E0001626F50
:100938007CEC31F0150EECEC31F01200CC0E00011D
:10094800616F010E606F080E0001626F7CEC31F080
:10095800CC0E0001616F030E606F040E0001626F20
:100968007CEC31F00F0EECEC31F01200CC0E0001F3
:10097800616F010E606F080E0001626F7CEC31F050
:10098800CC0E0001616F030E606F040E0001626FF0
:100998007CEC31F0160EECEC31F01200CC0E0001BC
:1009A800616F010E606F080E0001626F7CEC31F020
:1009B800CC0E0001616F030E606F040E0001626FC0
:1009C8007CEC31F0110EECEC31F01200CC0E000191
:1009D800616F010E606F080E0001626F7CEC31F0F0
:1009E800CC0E0001616F030E606F040E0001626F90
:1009F8007CEC31F0170EECEC31F01200CC0E00015B
:100A0800616F010E606F080E0001626F7CEC31F0BF
:100A1800CC0E0001616F030E606F040E0001626F5F
:100A28007CEC31F0180EECEC31F01200CC0E000129
:100A3800616F010E606F080E0001626F7CEC31F08F
:100A4800CC0E0001616F030E606F040E0001626F2F
:100A58007CEC31F0190EECEC31F01200CC0E0001F8
:100A6800616F010E606F080E0001626F7CEC31F05F
:100A7800CC0E0001616F030E606F040E0001626FFF
:100A88007CEC31F01A0EECEC31F01200CC0E0001C7
:100A9800616F010E606F080E0001626F7CEC31F02F
:100AA800CC0E0001616F030E606F040E0001626FCF
:100AB8007CEC31F01B0EECEC31F01200CC0E000196
:100AC800616F010E606F080E0001626F7CEC31F0FF
:100AD800CC0E0001616F030E606F040E0001626F9F
:100AE8007CEC31F0010EECEC31F0120000016751A2
:100AF800020AD8B4BBD5010AD8B4A0D5070AD8B41D
:100B0800FDD5010AD8B4E2D5030AD8B4C7D5010A7D
:100B1800D8B40CD60F0AD8B421D6010AD8B436D620
:100B2800030AD8B44BD6010AD8B460D6070AD8B499
:100B380075D6010AD8B4A2D6030AD8B487D6010A52
:100B4800D8B4FCD61E0AD8B429D7020AD8B4AED66F
:100B5800070AD8B4C3D6010AD8B4D8D6030AD8B479
:100B680005D7010AD8B432D70F0AD8B447D7010A33
:100B7800D8B45CD7030AD8B471D7010AD8B486D7D9
:100B88009DD71200100E0001F56F000E0001EF6FE7
:100B9800000E0001F16F000E0001F06F000E000161
:100BA800F76F000EF66F000E0001EE6F000EED6F8E
:100BB800000E0001F26F000E0001FC6F05EC3CF026
:100BC8000001F26F91EC3CF081C0F3F082C0F4F0C8
:100BD8000001F2510001D8B411D0000E0001EE6FEF
:100BE800000EED6F0001F3510001F411D8A406D0F6
:100BF800010E0001F76FF40EF66F05D0F3C0F6F0A2
:100C0800F4C0F7F000D00001F3510001F411D8A4AA
:100C180009D00001F2510001D8A404D0140E1FEC31
:100C280003F012006FC1A6F16EC1A7F131C099F1AE
:100C380032C09AF133C09BF134C09CF135C09DF1AC
:100C4800020E01019E6F000E0001A86F010EA76F32
:100C5800990E0001A96F010E0001AA6FF50E00019F
:100C6800AB6F000E0001AC6F78EC29F089D1000E53
:100C78000001F06F0001F15134EC17F00001F06F42
:100C8800030E0001F019D8B480D102D07ED109D06A
:100C9800020E0001F019D8A404D0000E0001F16F73
:100CA80000D00001F2510001D8A4BFD00001F6071E
:100CB800D8A0F707F6C081F0F7C082F0DD0E00017A
:100CC800836F000E0001846FCEEC35F00001F65101
:100CD8000001F711D8A412D0E50E0001606F000ED4
:100CE8000001616F000E0001636F6269000E000170
:100CF800656F080E646F23EC3BF011D00001F60716
:100D0800D8A0F707F6C081F0F7C082F0E50E000121
:100D1800836F000E0001846FCEEC35F000D0000127
:100D2800FC51010D570EF324D96E020EF420DA6E31
:100D3800DDC0DFFF0001FC2B0001FC51010D570E47
:100D4800F324D96E020EF420DA6EE5C0DFFF00014D
:100D5800FC2B0001F12BF1050001DC6F0001DC51D7
:100D6800010DFF0EF324F66EFE0EF420F76EF86AFE
:100D7800000EF8220800F5500001A76FA86BDD0EE1
:100D88000001A96F000E0001AA6FF50E0001AB6FFC
:100D9800000E0001AC6F78EC29F0E806D8A404D066
:100DA800010E1FEC03F037D0140E1FEC03F0A90E50
:100DB8000001916F010E0001926FF70E0001936F11
:100DC800FF0E0001946F000193519411D8A4000EF6
:100DD800956FCA0E0001966FFF0E0001976F000114
:100DE80096519711D8A4000E986F640E0001996F60
:100DF800FF0E00019A6F5E0E00019B6FFF0E00014F
:100E08009C6F00019B519C11D8A4000E9D6F910E00
:100E1800DEEC2CF012000001F6510001F711D8A405
:100E2800AFD0010E0001EF6FABD00001F607D8A0DC
:100E3800F707F6C081F0F7C082F0DD0E0001836F7E
:100E4800000E0001846FCEEC35F00001F651000170
:100E5800F711D8A406D0010E0001F76FF40EF66F53
:100E680000D00001F607D8A0F707F6C081F0F7C058
:100E780082F0E50E0001836F000E0001846FCEEC56
:100E880035F00001F6510001F711D8A406D0010E83
:100E98000001F76FF40EF66F00D00001F12BF10599
:100EA8000001DC6F0001DC51010DFF0EF324F66E2A
:100EB800FE0EF420F76EF86A000EF8220800F550CE
:100EC8000001A76FA86BDD0E0001A96F000E0001DD
:100ED800AA6FF50E0001AB6F000E0001AC6F78EC45
:100EE80029F0E806D8A404D0010E1FEC03F037D08F
:100EF800140E1FEC03F0A90E0001916F010E000102
:100F0800926FF70E0001936FFF0E0001946F0001BE
:100F180093519411D8A4000E956FCA0E0001966FD4
:100F2800FF0E0001976F000196519711D8A4000E8B
:100F3800986F640E0001996FFF0E00019A6F5E0EA4
:100F480000019B6FFF0E00019C6F00019B519C11DB
:100F5800D8A4000E9D6F910EDEEC2CF01200020E4C
:100F68000001ED27000EEE23F40E0001ED5D010EE9
:100F78000001EE59D8A004D0010E0001EF6F00D097
:100F88000001EF510001D8B472D6070E1FEC03F030
:100F9800070E0001616FD00E606FB3EC3AF01200DB
:100FA800010136BD37D00C0E1FEC03F0A90E00016D
:100FB800916F010E0001926FF70E0001936FFF0E03
:100FC8000001946F000193519411D8A4000E956FFD
:100FD800E80E0001966FFF0E0001976F0001965111
:100FE8009711D8A4000E986F620E0001996FFF0E3A
:100FF80000019A6F600E00019B6FFF0E00019C6F4D
:1010080000019B519C11D8A4000E9D6F120EDEECBE
:101018002CF012000101A5A102D0010E01D0000E92
:101028000001E56F010171A102D0010E01D0000E8F
:101038000001EA6F010172A102D0010E01D0000E79
:101048000001ED6F01016E510001E46FE36B0101D6
:101058006F510001E3250001EB6F0101000E000153
:10106800E4210001EC6F000E496E0001EA51000115
:10107800D8A4D7D00001ED510001D8A407D0EBC007
:10108800C2F0ECC0C3F094EC1BF002D08FEC37F048
:101098000001E36F0001E3510001E66FE76B00D048
:1010A800E6C0EEF00001EE510001D8B483D0E0ECC8
:1010B80025F00009D8B447D0BCEC3EF0800E010101
:1010C8000119D8A43AD0070E1FEC03F0010E41EC29
:1010D80037F0A90E0001916F010E0001926F000E0A
:1010E8000001936F000E0001946F000E0001956FD0
:1010F800000E0001966F000E0001976F000E0001B0
:10110800986F620E0001996FFF0E00019A6F650ECD
:1011180000019B6FFF0E00019C6F00019B519C1109
:10112800D8A4000E9D6F100EDEEC2CF001015B05BB
:10113800D8A412001BEC3AF01200070E1FEC03F0C3
:101148005DEC39F01200A90E0001916F010E00014B
:10115800926FF70E0001936FFF0E0001946F00016C
:1011680093519411D8A4000E956FC50E0001966F87
:10117800FF0E0001976F000196519711D8A4000E39
:10118800986F620E0001996FFF0E00019A6F630E4F
:1011980000019B6FFF0E00019C6F00019B519C1189
:1011A800D8A4000E9D6F130EDEEC2CF0110E1FEC70
:1011B80003F01200A90E0001916F010E0001926F59
:1011C800F70E0001936FFF0E0001946F0001935119
:1011D8009411D8A4000E956FE80E0001966FFF0ECB
:1011E8000001976F000196519711D8A4000E986FCF
:1011F800620E0001996FFF0E00019A6F600E0001E8
:101208009B6FFF0E00019C6F00019B519C11D8A49D
:10121800000E9D6F120EDEEC2CF00C0E1FEC03F08E
:1012280012000001ED510001D8A40ED0EBC0C2F0AD
:10123800ECC0C3F094EC1BF00001E36F0001E35134
:101248000001E86FE96B06D0000E0001E96F010E9E
:10125800E86F00D0E8C0EEF00001EE510001D8B40C
:1012680047D0BCEC3EF0800E01010119D8A43AD059
:10127800070E1FEC03F0010E41EC37F0A90E000138
:10128800916F010E0001926F000E0001936F000E26
:101298000001946F000E0001956F000E0001966F1B
:1012A800000E0001976F000E0001986F620E00019A
:1012B800996FFF0E00019A6F660E00019B6FFF0E7B
:1012C80000019C6F00019B519C11D8A4000E9D6FDA
:1012D800150EDEEC2CF001015B05D8A412001BEC06
:1012E8003AF01200070E1FEC03F05DEC39F0120023
:1012F800A90E0001916F010E0001926FF70E000117
:10130800936FFF0E0001946F000193519411D8A4BC
:10131800000E956FE80E0001966FFF0E0001976FA3
:10132800000196519711D8A4000E986F620E000123
:10133800996FFF0E00019A6F610E00019B6FFF0EFF
:1013480000019C6F00019B519C11D8A4000E9D6F59
:10135800160EDEEC2CF0030E1FEC03F01200120048
:101368000CEC31F00009D8A437D0A90E0001916F18
:10137800010E0001926FF70E0001936FFF0E00013E
:10138800946F000193519411D8A4000E956FD40E58
:101398000001966FFF0E0001976F0001965197119B
:1013A800D8A4000E986F560E0001996FFF0E000129
:1013B8009A6F6B0E00019B6FFF0E00019C6F00017E
:1013C8009B519C11D8A4000E9D6F630EDEEC2CF08F
:1013D800030E1FEC03F01200E4EC3EF00009D8A461
:1013E80037D0A90E0001916F010E0001926FF70E20
:1013F8000001936FFF0E0001946F00019351941147
:10140800D8A4000E956FC50E0001966FFF0E00015F
:10141800976F000196519711D8A4000E986F560E39
:101428000001996FFF0E00019A6F630E00019B6F18
:10143800FF0E00019C6F00019B519C11D8A4000E67
:101448009D6F620EDEEC2CF0030E1FEC03F0120011
:10145800990E0001676F010E0001686FD7EC1EF04E
:101468000009D8B4F7D001D0F5D09D0E0001676F00
:10147800010E0001686FD7EC1EF00009D8B4EAD05D
:1014880001D0E8D0A10E0001676F010E0001686F5E
:10149800D7EC1EF00009D8B4DDD001D0DBD0B10EF6
:1014A8000001676F010E0001686FD7EC1EF000099C
:1014B800D8B4D0D001D0CED0B50E0001676F010EE0
:1014C8000001686FD7EC1EF00009D8B4C3D001D072
:1014D800C1D0B90E0001606F010E0001616F990E55
:1014E8000001626F010E0001636F000E0001656F5D
:1014F800040E646FB5EC37F0BD0E0001606F010E8D
:101508000001616F9D0E0001626F010E0001636FA3
:10151800000E0001656F040E646FB5EC37F0C10E64
:101528000001606F010E0001616FA10E0001626F82
:10153800010E0001636F000E0001656F040E646FF9
:10154800B5EC37F0C50E0001606F010E0001616F48
:10155800B10E0001626F010E0001636F000E000101
:10156800656F040E646FB5EC37F0C90E0001606F4B
:10157800010E0001616FB50E0001626F010E0001DE
:10158800636F000E0001656F040E646FB5EC37F0F1
:101598007EEC3DF0B90E0001606F010E0001616F35
:1015A800000E0001626F140E0001636FF8EC38F052
:1015B800E806D8A413D00101368D010136AB05D059
:1015C8000101369B0101368500D0BCEC3EF00101DB
:1015D8000151D8A406D05DEC39F003D00101369D45
:1015E80000D09DEC39F0020E1FEC03F0A90E0001AB
:1015F800916F010E0001926FF70E0001936FFF0EBD
:101608000001946F000193519411D8A4000E956FB6
:10161800E30E0001966FFF0E0001976F00019651CF
:101628009711D8A4000E986F560E0001996FFF0EFF
:1016380000019A6F650E00019B6FFF0E00019C6F01
:1016480000019B519C11D8A4000E9D6F600EDEEC2A
:101658002CF012000F0E1FEC03F0A90E0001916F81
:10166800010E0001926FF70E0001936FFF0E00014B
:10167800946F000193519411D8A4000E956FCA0E6F
:101688000001966FFF0E0001976F000196519711A8
:10169800D8A4000E986F560E0001996FFF0E000136
:1016A8009A6F5E0E00019B6FFF0E00019C6F000198
:1016B8009B519C11D8A4000E9D6F610EDEEC2CF09E
:1016C80012001200000E0001F86F000E0001F96F01
:1016D8003CEC2AF0D5EC3BF04BEC38F0030E010162
:1016E8000419D8A40ED0060E1FEC03F0DDEC39F077
:1016F800130E0001616F880E606FB3EC3AF0F6D7F5
:1017080000D0FCEC0FF0BCEC3EF0A6EC3EF0010182
:101718005B05D8A40DD0010136AD0AD001010151F5
:10172800D8A403D01BEC3AF006D098EC33F003D0E1
:1017380098EC33F000D001015B51D8A467D00300C6
:1017480000F000F001010205D8A449D04BEC38F0B4
:10175800030E01010419D8B439D0CA0E0001726F02
:10176800040E716F000E0001736F000E0001746F9C
:10177800C3EC22F0000E0101026FFBEC0CF0CA0E64
:101788000001726F030E716F000E0001736F000E7F
:101798000001746FC3EC22F0020E01010419D8A4F1
:1017A8000BD0030E0001616FE80E606FB3EC3AF0E6
:1017B800060E1FEC03F000D001011F05D8A402D0CB
:1017C800E5D00AD0010E69EC37F006D0DDEC39F02F
:1017D800010E69EC37F000D098EC33F0ACD701017A
:1017E8000805D8A4A8D7010136BDFBD001D0F9D08F
:1017F8000001F92B090E0001F965F3D0000E000174
:10180800F96F65EC33F0EDD0ECD095D701012105E7
:10181800D8A47BD0000E0001F86F70D0FCEC39F032
:1018280001010205D8A43BD04BEC38F0CA0E0001E8
:10183800726F040E716F000E0001736F000E0001CD
:10184800746FC3EC22F0000E0101026FFBEC0CF088
:10185800CA0E0001726F030E716F000E0001736FE4
:10186800000E0001746FC3EC22F0020E010104198E
:10187800D8A40BD0030E0001616FE80E606FB3ECC3
:101888003AF0060E1FEC03F000D001011F05D8A4A2
:1018980002D07CD033D0010E69EC37F02FD0DBECCE
:1018A8003EF00009D8B411D05DEC39F0E806D8A4B0
:1018B80009D0010E0001F86F010E69EC37F098ECC1
:1018C80033F01CD01BEC3AF019D001010805D8A45C
:1018D80015D0010136BD0ED001D00CD00001F92B76
:1018E800090E0001F96506D0000E0001F96F65ECDC
:1018F80033F000D0000E0101086F00D00001F8514C
:101908000001D8A418D78AD716D7030000F000F032
:1019180001010205D8A450D04BEC38F0030E0101A8
:101928000419D8B43CD0CA0E0001726F040E716F4E
:10193800000E0001736F000E0001746FC3EC22F0FB
:10194800000E0101026FFBEC0CF0CA0E0001726F71
:10195800030E716F000E0001736F000E0001746FAB
:10196800C3EC22F0020E01010419D8A40BD0030E17
:101978000001616FE80E606FB3EC3AF0060E1FECE1
:1019880003F000D001011F05D8A405D0000E010105
:101998001F6FB7D60AD0010E69EC37F006D0DDEC20
:1019A80039F0010E69EC37F000D001012151D8A4BB
:1019B800C2D698EC33F0BFD601010805D8A4BBD62F
:1019C800010136BD0ED001D00CD00001F92B090E53
:1019D8000001F96506D0000E0001F96F65EC33F0DF
:1019E80000D0000E0101086FA6D676EF00F0000EB9
:1019F8000101F86F060EF76F0101F569F669000E2F
:101A08000101FA6F000E8FD0000E0001C36F030EA4
:101A1800C26FF10E0001C46F010E0001C56F2CECFE
:101A28002DF0E806D8A4C5D0F10E0001696F010EAB
:101A380000016A6F63EC3CF00009D8B45AD0BCECE2
:101A48003EF0800E01010119D8A438D0070E1FEC12
:101A580003F0010E41EC37F001015B05D8A403D077
:101A68001BEC3AF000D08F0E0001916F010E0001BF
:101A7800926F000E0001936F000E0001946F000E2C
:101A88000001956F000E0001966F000E0001976F20
:101A9800000E0001986F5F0E0001996FFF0E0001A4
:101AA8009A6F000E00019B6F000E00019C6F000EE4
:101AB80000019D6F020EDEEC2CF010D001010151E7
:101AC800D8A406D0070E1FEC03F05DEC39F006D061
:101AD800070E1FEC03F05DEC39F000D0010136BDB4
:101AE80012000B0E0001616FB80E606FB3EC3AF094
:101AF8001200F50E0001C26F010E0001C36FF10E56
:101B08000001C46F010E0001C56FD8EC14F0C2C00B
:101B1800F7F1C3C0F8F1670E0101F7190101F811D7
:101B2800D8A404D0010E0101F96F82D08F0E0001F4
:101B3800916F010E0001926FF70E0001936FFF0E77
:101B48000001946F000193519411D8A4000E956F71
:101B5800DE0E0001966FFF0E0001976F000196518F
:101B68009711D8A4000E986F550E0001996FFF0EBB
:101B780000019A6F5B0E00019B6FFF0E00019C6FC6
:101B880000019B519C11D8A4000E9D6F0A0EDEEC3B
:101B98002CF00101FA2B000E0001616F640E606FDA
:101BA800B3EC3AF00A0E0101FA6542D012001200B5
:101BB8003FD0000E0001916F000E0001926FF70EEA
:101BC8000001936FFF0E0001946F0001935194116F
:101BD800D8A4000E956FED0E0001966FFF0E000160
:101BE800976F000196519711D8A4000E986F680E50
:101BF8000001996FFF0E00019A6F5E0E00019B6F46
:101C0800FF0E00019C6F00019B519C11D8A4000E8F
:101C18009D6F000EDEEC2CF00101FA2B000E000186
:101C2800616F640E606FB3EC3AF0BCD7120000D05D
:101C38000101F9510101D8A432D0E6D630D0D4EC54
:101C480007F0120078EC00F0120071EC16F01200A8
:101C5800C1EC12F0120020EC3FF0120058EC24F016
:101C680012001FEC3FF01200B7EC18F01200B4ECB1
:101C780009F0120039EC22F01200C1EC2DF012002C
:101C880087EC0EF01200D6EC13F012001EEC3FF0B9
:101C98001200C6EC05F0120051EC2EF01200010102
:101CA800A851010AD8B4CBD7030AD8B4CBD7120AA3
:101CB800D8B4CBD7010AD8B4CBD7030AD8B4CBD77A
:101CC800010AD8B4CBD7070AD8B4CBD7010AD8B4FD
:101CD800CBD7030AD8B4CBD7360AD8B4CBD7010AA6
:101CE800D8B4CBD7110AD8B4CBD7010AD8B4CBD73C
:101CF800A90AD8B4D1D7380AD8B4C8D7100AD8A4F2
:101D08001200C7D71200000E00019F6F000E0001DD
:101D1800A06F000E0001A16F0CEC31F00009D8A4EF
:101D280037D0A90E0001916F010E0001926FF70ED6
:101D38000001936FFF0E0001946F000193519411FD
:101D4800D8A4000E956FD40E0001966FFF0E000107
:101D5800976F000196519711D8A4000E986F580EEE
:101D68000001996FFF0E00019A6F6B0E00019B6FC7
:101D7800FF0E00019C6F00019B519C11D8A4000E1E
:101D88009D6F7D0EDEEC2CF00C0E1FEC03F01200A4
:101D9800E4EC3EF00009D8A437D0A90E0001916FF9
:101DA800010E0001926FF70E0001936FFF0E000104
:101DB800946F000193519411D8A4000E956FC50E2D
:101DC8000001966FFF0E0001976F00019651971161
:101DD800D8A4000E986F580E0001996FFF0E0001ED
:101DE8009A6F630E00019B6FFF0E00019C6F00014C
:101DF8009B519C11D8A4000E9D6F7C0EDEEC2CF03C
:101E0800030E1FEC03F01200010199A102D0010E8C
:101E180001D0000E00019F6F01019AA102D0010EAE
:101E280001D0000E0001A06F01019BA102D0010E9C
:101E380001D0000E0001A16F00019F510001D8B42C
:101E480036D0B1EC3EF0A90E0001916F010E0001F1
:101E5800926FF70E0001936FFF0E0001946F00015F
:101E680093519411D8A4000E956FE30E0001966F5C
:101E7800FF0E0001976F000196519711D8A4000E2C
:101E8800986F580E0001996FFF0E00019A6F640E4B
:101E980000019B6FFF0E00019C6F00019B519C117C
:101EA800D8A4000E9D6F780EDEEC2CF000D0000157
:101EB800A0510001D8B436D0F5EC3EF0A90E0001CF
:101EC800916F010E0001926FF70E0001936FFF0EE4
:101ED8000001946F000193519411D8A4000E956FDE
:101EE800E30E0001966FFF0E0001976F00019651F7
:101EF8009711D8A4000E986F580E0001996FFF0E25
:101F080000019A6F520E00019B6FFF0E00019C6F3B
:101F180000019B519C11D8A4000E9D6F790EDEEC38
:101F28002CF000D00001A1510001D8B45DD0630E9F
:101F38000001606F010E0001616F000E0001636F08
:101F4800000E626F000E0001656F050E646F23ECD2
:101F58003BF0680E0001606F010E0001616F000E1A
:101F68000001636F000E626F000E0001656F050EC1
:101F7800646F23EC3BF0000E01016D6F7DEC39F0CE
:101F8800A90E0001916F010E0001926FF70E00017A
:101F9800936FFF0E0001946F000193519411D8A420
:101FA800000E956FE30E0001966FFF0E0001976F0C
:101FB800000196519711D8A4000E986F580E000191
:101FC800996FFF0E00019A6F620E00019B6FFF0E62
:101FD80000019C6F00019B519C11D8A4000E9D6FBD
:101FE8007A0EDEEC2CF000D0020E1FEC03F012008B
:101FF800000E0001DA6F060ED96F0001DB69DC699B
:1020080000D0010E92EC38F0000E0001E26F0101E1
:102018007551D8A4B1D0010E0001616FF40E606F44
:10202800B3EC3AF0080E1FEC03F085D0030000F083
:1020380000F001010205D8A482D0000E0001C36F90
:10204800030EC26FDD0E0001C46F000E0001C56FE4
:102058002CEC2DF0E806D8A468D023EC32F0E80682
:10206800D8A40DD0990E0101A819D8A408D060EC05
:1020780026F0E806D8B413D102D011D100D0000E52
:102088000001E16F030E0001E16501D01BD00001E2
:10209800E151010DDD0EF324D96E000EF420DA6E45
:1020A8000001E151010D270EF326000EF422380E2F
:1020B800F324E16E010EF420E26EDFCFE7FF0001AA
:1020C800E12BE0D7010E0101756F7DEC39F08F0E21
:1020D8000001916F010E0001926F000E0001936FD5
:1020E800000E0001946F000E0001956F000E0001B4
:1020F800966F000E0001976F000E0001986F5F0E3B
:102108000001996FFF0E00019A6F000E00019B6F8E
:10211800000E00019C6F000E00019D6F030EDEECA7
:102128002CF00B0E1FEC03F003D0160E1FEC03F07F
:10213800010E92EC38F0000E0101026F17D0010178
:102148000805D8A413D00001E22B040E0001E265B3
:1021580007D0000E0001E26F080E1FEC03F000D05C
:10216800BDEC3BF0000E0101086F00D00101755174
:10217800D8A402D05BD700D0000E0001E26F0101A5
:102188007651D8A441D0030E0001616FE80E606F4C
:10219800B3EC3AF0090E1FEC03F015D0030000F081
:1021A80000F001010205D8A412D0DEEC29F00009E4
:1021B800D8B406D001011F05D8A402D047D000D05A
:1021C800010E92EC38F0000E0101026F17D00101E8
:1021D8000805D8A413D00001E22B040E0001E26523
:1021E80007D0000E0001E26F090E1FEC03F000D0CB
:1021F800BDEC3BF0000E0101086F00D001017651E3
:10220800D8A402D0CBD700D0000E0001E26F0101A4
:102218002051D8A444D0030E0001616FE80E606F0E
:10222800B3EC3AF00A0E1FEC03F018D0030000F0EC
:1022380000F001010205D8A415D0DEEC29F0000950
:10224800D8B409D001011F05D8A405D0000E01019A
:102258001F6FD7D600D0010E92EC38F0000E0101A6
:10226800026F17D001010805D8A413D00001E22B92
:10227800040E0001E26507D0000E0001E26F0A0EAD
:102288001FEC03F000D0BDEC3BF0000E0101086F1D
:1022980000D001012051D8A402D0C8D700D0D5EC75
:1022A8003BF0010E69EC37F0CA0E0001726F030EA5
:1022B800716F000E0001736F000E0001746FC3ECA4
:1022C80022F012000001876F010E0001816F000EDD
:1022D8000001886F000E0001866F000E0001836FF9
:1022E80083C089F089C085F085C082F082C080F003
:1022F80080C084F00FD0120E0001846F100E04D03D
:10230800770E0001846F300E0001806F0CD0000E34
:10231800120009D0000187510C0AD8B4F1D7020A7B
:10232800D8B4E9D7F4D70001845180090001676F58
:10233800020EC0EC34F0800E0001716F040E41EC07
:102348003DF0000E0001676F010EC0EC34F0800E06
:102358000001716F0A0E59EC3AF0000E0001886F07
:1023680014D000018851010DF35000017525D96E74
:10237800F45000017621DA6EDF500001676F090E14
:10238800C0EC34F00001882B00D000017751000127
:10239800885DD8A0E6D787C067F0010EC0EC34F09E
:1023A8000C0E00018719D8A407D0800E0001716FA8
:1023B8000D0E59EC3AF000D0190E0001866F00019D
:1023C80086510001D8B41FD001D01DD0060E0001DF
:1023D8007C6F300EE82EFED77C2FFCD700D0040E81
:1023E8001DEC35F00001856F000185B10CD00001AE
:1023F8008551000180150009D8A405D001D003D06B
:1024080000018607DCD7800E0001716F0D0E41ECCC
:102418003DF0000186510001D8B49FD0060E1DEC96
:1024280035F00001836F83C07CF01B0E00017C1720
:10243800D8A48ED0010E0001816F000185510001E2
:10244800841500017C6F00017CA104D0000E0001FE
:10245800816F00D00C0E00018719D8A47ED00A0E17
:102468001DEC35F00001896F0C0E1DEC35F0070BE3
:102478000001826F000182510001D8B42DD0F80EFE
:1024880000017C6FFF0E00017D6F0001825189C041
:102498007EF000017F6B0001D8907E377F37000106
:1024A800D8907E377F370001D8907E377F3700017C
:1024B8007E27000E7F2300017C5100017E2700014A
:1024C8007D5100017F237AC0D9FF7BC0DAFF7EC02F
:1024D800DEFF7FC0DDFF0CD000018951080D7AC0F6
:1024E800D9FF7BC0DAFFF3CFDEFFF4CFDDFF00D0EA
:1024F800000189510001D8A402D0010E05D0120EA6
:102508000001896504D0120E0001896F00D0000E09
:102518000001886F15D0090E1DEC35F000017C6FA5
:1025280000018851010DF35000017825D96EF4504F
:1025380000017921DA6E7CC0DFFF0001882B00D012
:10254800000189510001885DD8B007D0E4D705D0D3
:102558000001000E0001816F00D0800E0001716F34
:102568000C0E59EC3AF0000E0001676F010EC0EC3A
:1025780034F00001815112001200000E0001B96F01
:10258800000EB86F01016E510001B76FB66B010103
:102598006F510001B6250001B86F0101000E00015E
:1025A800B7210001B96F0001B82904E10001B92978
:1025B800D8B437D0A90E0001916F010E0001926FB7
:1025C800F70E0001936FFF0E0001946F0001935105
:1025D8009411D8A4000E956FCA0E0001966FFF0ED5
:1025E8000001976F000196519711D8A4000E986FBB
:1025F8005A0E0001996FFF0E00019A6F5E0E0001DE
:102608009B6FFF0E00019C6F00019B519C11D8A489
:10261800000E9D6F390EDEEC2CF0030E1FEC03F05C
:102628001200E4EC3EF00009D8A437D0A90E00014E
:10263800916F010E0001926FF70E0001936FFF0E6C
:102648000001946F000193519411D8A4000E956F66
:10265800C50E0001966FFF0E0001976F000196519D
:102668009711D8A4000E986F5A0E0001996FFF0EAB
:1026780000019A6F630E00019B6FFF0E00019C6FB3
:1026880000019B519C11D8A4000E9D6F3A0EDEEC00
:102698002CF0030E1FEC03F012000F0E01019A5DDF
:1026A800D8A037D0A90E0001916F010E0001926FDA
:1026B800F70E0001936FFF0E0001946F0001935114
:1026C8009411D8A4000E956FCA0E0001966FFF0EE4
:1026D8000001976F000196519711D8A4000E986FCA
:1026E8005A0E0001996FFF0E00019A6F5E0E0001ED
:1026F8009B6FFF0E00019C6F00019B519C11D8A499
:10270800000E9D6F390EDEEC2CF0030E1FEC03F06B
:10271800120001019A5101016E6F99C16FF1010117
:102728007651D8A404D0010E0101766F00D07DEC5B
:1027380039F09DEC39F0020E1FEC03F0A90E0001F0
:10274800916F010E0001926FF70E0001936FFF0E5B
:102758000001946F000193519411D8A4000E956F55
:10276800E30E0001966FFF0E0001976F000196516E
:102778009711D8A4000E986F5A0E0001996FFF0E9A
:1027880000019A6F650E00019B6FFF0E00019C6FA0
:1027980000019B519C11D8A4000E9D6F380EDEECF1
:1027A8002CF0120081BA37D0A90E0001916F010EEA
:1027B8000001926FF70E0001936FFF0E0001946FF6
:1027C800000193519411D8A4000E956FC50E000115
:1027D800966FFF0E0001976F000196519711D8A4CC
:1027E800000E986F5D0E0001996FFF0E00019A6F41
:1027F800630E00019B6FFF0E00019C6F00019B514F
:102808009C11D8A4000E9D6F820EDEEC2CF0030EF6
:102818001FEC03F01200E4EC3EF00009D8A437D016
:10282800A90E0001916F010E0001926FF70E0001D1
:10283800936FFF0E0001946F000193519411D8A477
:10284800000E956FC50E0001966FFF0E0001976F81
:10285800000196519711D8A4000E986F5D0E0001E3
:10286800996FFF0E00019A6F630E00019B6FFF0EB8
:1028780000019C6F00019B519C11D8A4000E9D6F14
:10288800820EDEEC2CF0030E1FEC03F01200D6ECE7
:1028980038F00009D8A437D0A90E0001916F010EB5
:1028A8000001926FF70E0001936FFF0E0001946F05
:1028B800000193519411D8A4000E956FC50E000124
:1028C800966FFF0E0001976F000196519711D8A4DB
:1028D800000E986F5D0E0001996FFF0E00019A6F50
:1028E800630E00019B6FFF0E00019C6F00019B515E
:1028F8009C11D8A4000E9D6F820EDEEC2CF0030E06
:102908001FEC03F0120049EC3EF0E0EC3DF012EC55
:102918003FF0B1EC3EF0F5EC3EF07AEC3CF09DEC8B
:1029280039F0010E01011F6F050E1FEC03F03AECA0
:102938003AF0010E0001616F2C0E606FB3EC3AF0B3
:10294800A90E0001916F010E0001926FF70E0001B0
:10295800936FFF0E0001946F000193519411D8A456
:10296800000E956FE30E0001966FFF0E0001976F42
:10297800000196519711D8A4000E986F5D0E0001C2
:10298800996FFF0E00019A6F650E00019B6FFF0E95
:1029980000019C6F00019B519C11D8A4000E9D6FF3
:1029A800800EDEEC2CF01200000E0001CF6F000E3E
:1029B800CE6F000E0001D06F000E0001C76F000E31
:1029C800C66F010E0001CC6F020E0001CD6FC80E5C
:1029D8000001726F000E0001736FC4C074F0C5C0AF
:1029E80075F04F0E0001766F010E0001776FC8EC8D
:1029F80027F0CCC0A7F00001A86B990E0001A96FC1
:102A0800010E0001AA6FD00E0001AB6F000E00018D
:102A1800AC6F4BEC23F00009D8B458D001D056D095
:102A2800CDC0A7F00001A86BA90E0001A96F010E87
:102A38000001AA6FD00E0001AB6F000E0001AC6F51
:102A48004BEC23F00009D8B441D001D03FD0C80ED8
:102A58000001606F000E0001616FAD0E0001626F32
:102A6800010E0001636F040E0001646FCAEC33F0BD
:102A78000009D8A409D00E0E1FEC03F0FE0E0001C9
:102A8800C36F0C0EC26F12000101A85194EC2EF016
:102A98000009D8B41BD001D019D08F0E0001606F87
:102AA800010E0001616FC4C062F0C5C063F0040E7E
:102AB8000001646FDBEC37F0000E0001CF6F670E8A
:102AC800CE6FCEC0C2F0CFC0C3F01200000E00011E
:102AD800CF6F660ECE6F0F0E1FEC03F08F0E000146
:102AE800916F010E0001926FF70E0001936FFF0EB8
:102AF8000001946F000193519411D8A4000E956FB2
:102B0800F20E0001966FFF0E0001976F00019651BB
:102B18009711D8A4000E986F690E0001996FFF0EE7
:102B280000019A6F5B0E00019B6FFF0E00019C6F06
:102B380000019B519C11D8A4000E9D6F090EDEEC7C
:102B48002CF0CEC0C2F0CFC0C3F012001200000EAD
:102B58000001FF6F0001FE69370E1DEC35F0000122
:102B6800716F00017129D8A405D0000E0101076F0B
:102B7800120004D0010E0101076F00D00F0E0001F2
:102B8800676F010EC0EC34F00009D8B4120001D010
:102B980012003D0E0001676F110EC0EC34F0000901
:102BA800D8B4120001D012001E0E0001676F2D0E5E
:102BB800C0EC34F00009D8B4120001D01200000EA5
:102BC8000001676F2C0EC0EC34F00009D8B4120075
:102BD80001D012008D0E0001676F2A0EC0EC34F090
:102BE8000009D8B4120001D012003E0E0001676F30
:102BF8002B0EC0EC34F00009D8B4120001D012003A
:102C0800400E0001676F150EC0EC34F00009D8B40F
:102C1800120001D012003D0E0001676F110EC0ECCA
:102C280034F00009D8B4120001D01200860E000159
:102C3800676F170EC0EC34F00009D8B4120001D049
:102C480012007F0E0001676F260EC0EC34F00009F9
:102C5800D8B4120001D012001E0E0001676F2D0EAD
:102C6800C0EC34F00009D8B4120001D01200000EF4
:102C78000001676F2C0EC0EC34F00009D8B41200C4
:102C880001D012008D0E0001676F2A0EC0EC34F0DF
:102C98000009D8B4120001D012003E0E0001676F7F
:102CA8002B0EC0EC34F00009D8B4120001D0120089
:102CB800010E0001FF6F600E0001FE6FCD0E0001D6
:102CC800606F010E0001616F000E0001626F120E4D
:102CD8000001636F08EC3BF01200E4EC3EF00009E1
:102CE800D8A437D0A90E0001916F010E0001926F90
:102CF800F70E0001936FFF0E0001946F00019351CE
:102D08009411D8A4000E956FC50E0001966FFF0EA2
:102D18000001976F000196519711D8A4000E986F83
:102D2800570E0001996FFF0E00019A6F630E0001A4
:102D38009B6FFF0E00019C6F00019B519C11D8A452
:102D4800000E9D6F320EDEEC2CF0030E1FEC03F02C
:102D5800120076EC36F0E806D8A434D0A90E0001AB
:102D6800916F010E0001926FF70E0001936FFF0E35
:102D78000001946F000193519411D8A4000E956F2F
:102D8800CA0E0001966FFF0E0001976F0001965161
:102D98009711D8A4000E986F570E0001996FFF0E77
:102DA80000019A6F5E0E00019B6FFF0E00019C6F81
:102DB80000019B519C11D8A4000E9D6F310EDEECD2
:102DC8002CF012004F0E0001606F010E0001616FC0
:102DD800990E0001626F010E0001636F000E000181
:102DE800656F060E646FB5EC37F07DEC39F09DEC3D
:102DF80039F0020E1FEC03F0A90E0001916F010ECD
:102E08000001926FF70E0001936FFF0E0001946F9F
:102E1800000193519411D8A4000E956FE30E0001A0
:102E2800966FFF0E0001976F000196519711D8A475
:102E3800000E986F570E0001996FFF0E00019A6FF0
:102E4800650E00019B6FFF0E00019C6F00019B51F6
:102E58009C11D8A4000E9D6F300EDEEC2CF01200F1
:102E68000001D96F000E0001D86F060ED76F000160
:102E7800D569D669000E0001DB6F1D0E0001D9650A
:102E8800ACD0130E1FEC03F0070E0001616FD00EDB
:102E9800606FB3EC3AF09CD0000E0001D96F000EC1
:102EA8000001C36F030EC26FD10E0001C46F000E84
:102EB8000001C56F2CEC2DF0E806D8A440D0D50E43
:102EC8000001C26F000E0001C36FD10E0001C46F74
:102ED800000E0001C56FD8EC14F0C2C0D7F0C3C013
:102EE800D8F0670E0001D7190001D811D8A427D04F
:102EF8006FC1A6F16EC1A7F131C099F132C09AF144
:102F080033C09BF134C09CF135C09DF1020E010124
:102F18009E6F000E0001A86F010EA76F990E0001A9
:102F2800A96F010E0001AA6FDA0E0001AB6F000E47
:102F38000001AC6F78EC29F0020E120000D0030EED
:102F48000001616FE80E606FB3EC3AF00001DB2B13
:102F5800130E1FEC03F00A0E0001DB6539D0A90E31
:102F68000001916F010E0001926FF70E0001936F3F
:102F7800FF0E0001946F000193519411D8A4000E24
:102F8800956FCA0E0001966FFF0E0001976F000142
:102F980096519711D8A4000E986F640E0001996F8E
:102FA800FF0E00019A6F5E0E00019B6FFF0E00017D
:102FB8009C6F00019B519C11D8A4000E9D6F910E2F
:102FC800DEEC2CF0140E1FEC03F0030E120000D000
:102FD800040E0001DB6560D702D0010E1200000E5E
:102FE8001200120067C06EF068C06FF067C0D9FFAA
:102FF80068C0DAFFDF5092EC3DF00001706F00010D
:1030080020EE01F06751D9266851DA22DF5092ECA0
:103018003DF00001716F6EC063F06FC064F0060E82
:103028000001656F6FEC38F00009D8A402D0000EDB
:10303800120067C0D9FF68C0DAFF630EDF6402D0F0
:10304800000E1200000120EE01F06751D9266851E8
:10305800DA22DF50D8B40BD0000120EE01F067511E
:10306800D9266851DA22120EDF6403D000D0000E90
:103078001200000120EE02F06751D9266851DA22C9
:10308800DF50D8B429D0000120EE02F06751D926CC
:103098006851DA22FF0E00016A6FFF0E00016B6FA4
:1030A8000001715100016C6F6D6B00016A510001E4
:1030B8006C2700016B5100016D231D0E00016C256A
:1030C800F66EFF0E6D21F76EF86A000EF822DE50DC
:1030D8000900F55CD8B002D0000E120070C069F08B
:1030E800030E00016917D8B417D0000120EE01F0D3
:1030F8006751D9266851DA22020EDE18D8A40CD0FE
:10310800000120EE02F06751D9266851DA22280E14
:10311800DF6402D0000E1200000120EE03F06751B8
:10312800D9266851DA22230EDF6402D0000E12007D
:10313800000120EE04F06751D9266851DA22590EB1
:10314800DF6402D0000E1200000120EE05F0675186
:10315800D9266851DA22590EDF6402D0000E120017
:10316800010E1200120001019951010B0001B66F06
:103178000CEC31F00009D8A437D0A90E0001916FEA
:10318800010E0001926FF70E0001936FFF0E000110
:10319800946F000193519411D8A4000E956FD40E2A
:1031A8000001966FFF0E0001976F0001965197116D
:1031B800D8A4000E986F670E0001996FFF0E0001EA
:1031C8009A6F6B0E00019B6FFF0E00019C6F000150
:1031D8009B519C11D8A4000E9D6F5B0EDEEC2CF069
:1031E800030E1FEC03F01200E4EC3EF00009D8A433
:1031F80037D0A90E0001916F010E0001926FF70EF2
:103208000001936FFF0E0001946F00019351941118
:10321800D8A4000E956FC50E0001966FFF0E000131
:10322800976F000196519711D8A4000E986F670EFA
:103238000001996FFF0E00019A6F630E00019B6FEA
:10324800FF0E00019C6F00019B519C11D8A4000E39
:103258009D6F5A0EDEEC2CF0030E1FEC03F01200EB
:10326800B6C071F17DEC39F09DEC39F0020E1FEC1F
:1032780003F0A90E0001916F010E0001926FF70E85
:103288000001936FFF0E0001946F00019351941198
:10329800D8A4000E956FE30E0001966FFF0E000193
:1032A800976F000196519711D8A4000E986F670E7A
:1032B8000001996FFF0E00019A6F650E00019B6F68
:1032C800FF0E00019C6F00019B519C11D8A4000EB9
:1032D8009D6F580EDEEC2CF0120000018C6F010E71
:1032E80000018D6F000E0001906F000E8F6F000EB1
:1032F80000018E6F3F0E00018C6502D0000E120097
:10330800A00E0101CD6F8CC0CEF1CF0E0001756FFC
:10331800010E0001766FCD0E0001776F010E0001DE
:10332800786F020E0001796F53EC27F0CD0E000183
:10333800756F010E0001766F040E0001776FCD0ED8
:103348000001786F010E0001796F8F0E00017A6F0E
:10335800000E00017B6F0C0E66EC11F000018D6F02
:10336800040E00018F1900019011D8A406D00101A4
:10337800CD510F0B0A0AD8B404D0000E00018D6F8E
:1033880000D000018D05D8A45DD0000E00018E6F1D
:103398000F0E00018E6501D019D000018E51010D6C
:1033A800F35000018A25D96EF45000018B21DA6EA2
:1033B80000018E51010DCD0EF324E16E010EF420B3
:1033C800E26EDFCFE7FF00018E2BE2D7DD0E0001B2
:1033D800756F010E0001766FCD0E0001776F010E3B
:1033E8000001786F100E0001796F53EC27F0CD0EB5
:1033F8000001756F010E0001766F120E0001776FE4
:10340800CD0E0001786F010E0001796F8F0E00015B
:103418007A6F000E00017B6F0C0E66EC11F0000154
:103428008D6F040E00018F1900019011D8A406D0E9
:103438000101CD510F0B0A0AD8B404D0000E0001C7
:103448008D6F00D000018D5112001200000E000196
:10345800666F60C0D9FF61C0DAFF62C0E1FF63C078
:10346800E2FFDE50E65CD8B002D0010E9DD062C00B
:10347800D9FF63C0DAFF60C0E1FF61C0E2FFDE5040
:10348800E65CD8A090D0000120EE01F06051D9266A
:103498006151DA22000110EE01F06251E126635118
:1034A800E222DE50E65CD8A0E0D7000120EE01F071
:1034B8006251D9266351DA22000110EE01F0605101
:1034C800E1266151E222DE50E65CD8A06CD0000112
:1034D80020EE02F06051D9266151DA22000110EE87
:1034E80002F06251E1266351E222DE50E65CD8A088
:1034F800BCD7000120EE02F06251D9266351DA22CE
:10350800000110EE02F06051E1266151E222DE5026
:10351800E65CD8A048D0000120EE03F06051D9261F
:103528006151DA22000110EE03F06251E126635185
:10353800E222DE50E65CD8A098D7000120EE03F026
:103548006251D9266351DA22000110EE03F060516E
:10355800E1266151E222DE50E65CD8A024D00001C9
:1035680020EE04F06051D9266151DA22000110EEF4
:1035780004F06251E1266351E222DE50E65CD8A0F5
:1035880074D7000120EE04F06251D9266351DA2283
:10359800000110EE04F06051E1266151E222DE5094
:1035A800E65CD8B004D0020E0001666F00D00001BE
:1035B800665112001200640E0001656112000001DC
:1035C8006651D8B41200130E0001666112000001A2
:1035D8006751D8B41200320E000167611200240E40
:1035E8000001686112005A0E000169611200590E4B
:1035F80000016A6502D0120012000001655192ECC8
:103608003DF000016D6F0001665192EC3DF0000144
:103618006E6F0001675192EC3DF000016F6F000181
:10362800685192EC3DF00001706F0001695192EC15
:103638003DF00001716F00016A5192EC3DF000010C
:10364800726F6EC06BF0030E00016B17060E00015F
:103658006C6F0001D8906B3700016C2FFAD700010E
:103668006D513F0B00016B1163C0D9FF64C0DAFFD5
:10367800DF6E000120EE01F06351D9266451DA2291
:1036880070C06BF0010E00016B17000E6BB1800E5D
:103698006B6F6FC06CF01F0E00016C170001D890A3
:1036A8006C370001D8906C3700016E41E8423F0B3F
:1036B800030B00016C1100016B11DF6E000120EE9D
:1036C80002F06351D9266451DA2271C06BF00F0EF3
:1036D80000016B1700016B3BF00E6B170001D890CF
:1036E80070310F0B00016B11DF6E000120EE03F04B
:1036F8006351D9266451DA2272C06BF03F0E000183
:103708006B170001D8906B370001D8906B37000118
:1037180071390F0B030B00016B11DF6E12001200E1
:10372800100E0001E26F0F0E0001C35DD8A002D099
:10373800000E1200070E0001C2150001D76F00012C
:10374800D86BC2C0C4F0C3C0C5F00001D890C5335F
:10375800C4330001D890C533C4330001D890C533B1
:10376800C4330F0E0001C4150001D96F0001DA6BD4
:10377800C2C0C4F0C3C0C5F0070E0001C66F000187
:10378800D890C533C4330001C62FF9D7C4C060F040
:10379800C5C061F0000E0001636F030E626F8FEC0D
:1037A80032F060C0DBF061C0DCF0C2C060F0C3C0C2
:1037B80061F0010E0001636F800E626F5BEC2FF009
:1037C800010E000160250001DD6F000E000161217E
:1037D8000001DE6FDDC0C4F0DEC0C5F00001D89086
:1037E800C437C5370001D890C437C5370001DB514D
:1037F8000001C4250001DF6F0001DC510001C52173
:103808000001E06FDFC0A7F0E0C0A8F0C70E00011C
:10381800A96F000E0001AA6FE20E0001AB6F000E47
:103828000001AC6F4BEC23F0E806D8A424D0C70EF7
:103838000001D925D96E000E0001DA21DA6EDF50B9
:103848000001E16FD7C0C4F0010E0001C56F00018F
:10385800C42B03D00001D890C5370001C42FFAD774
:103868000001C5510001E1150009D8B402D0010ECC
:103878001200000E1200000E120012000001A36FC9
:10388800010E0001A66F000E0001A56F000EA46FC7
:10389800000E0001A26F600E0001A319D8B405D074
:1038A800610E0001A319D8A42CD000019951000180
:1038B800D8B427D03F0E0001996502D022D021D07C
:1038C8003EEC3BF0A40E00018A6F000E00018B6FE6
:1038D800520E97EC2AF00001A66F0001A605D8A4A5
:1038E80073D001D071D0040E0001A4190001A511F4
:1038F800D8B40BD0020E0001A4190001A511D8B448
:1039080004D0000E0001A66F5FD09E0E00018A6FE2
:10391800000E00018B6F20EC21F00001A66F000162
:10392800A605D8A451D001D04FD09AC060F09BC052
:1039380061F09E0E0001626F000E0001636F040EBD
:103948000001646FDBEC37F09E0E00018A6F000EF9
:1039580000018B6F74EC1FF00001A66F0001A60533
:10396800D8A432D001D030D099C08AF097C08BF05B
:1039780098C08CF09E0E00018D6F000E00018E6FB6
:103988000001A351EEEC1CF00001A66F0001A60592
:10399800D8A41AD001D018D09CC08AF09DC08BF052
:1039A8000001995171EC19F00001A66F0001A605FC
:1039B800D8A40AD002D008D004D0010E0001A26F0A
:1039C80000D097EC30F000D0FCEC3EF00001A251A2
:1039D800120012000001956F010E0001946F000E95
:1039E8000001916F000E0001966F000E0001936FA9
:1039F800000E926F600E00019519D8B407D0610EC1
:103A080000019519D8B402D0000E12003F0E000133
:103A18008A6502D0000E120095C0CDF18AC0CEF1A1
:103A2800000E0001966F050E0001966501D022D0A8
:103A380000019651010DF35000018B25D96EF45009
:103A480000018C21DA6E0001965100018F6F906B96
:103A5800020E00018F27000E9023CD0E00018F2546
:103A6800E16E010E00019021E26EDFCFE7FF000159
:103A7800962BD9D7000E0001966F030E00019665AC
:103A880001D022D000019651010DF35000018D257F
:103A9800D96EF45000018E21DA6E000196510001B2
:103AA8008F6F906B080E00018F27000E9023CD0EAC
:103AB80000018F25E16E010E00019021E26EDFCF3B
:103AC800E7FF0001962BD9D7CD0E0001756F010EC7
:103AD8000001766F0C0E0001776FCD0E0001786F34
:103AE800010E0001796F920E00017A6F000E00013D
:103AF8007B6F0E0E66EC11F00001946F00019405C7
:103B0800D8A40CD0080E1DEC35F00001916F00010F
:103B180091B704D0000E0001946F00D000019451B9
:103B280012001200A00E0001766F4CEC36F000096E
:103B3800D8B498D001D096D0000176519FEC36F0D9
:103B48000009D8B48FD001D08DD000016B519FEC03
:103B580036F00009D8B486D001D084D000016A516B
:103B68009FEC36F00009D8B47DD001D07BD04CEC66
:103B780036F00009D8B476D001D074D0000176515F
:103B880001099FEC36F00009D8B46CD001D06AD096
:103B9800000E0001776F57D0FF0E00016F6FFF0E08
:103BA8000001706F00016E510001716F726B0001AE
:103BB8006F5100017127000170510001722300014B
:103BC80077510001736F746B000171510001735DCF
:103BD80000017451800A0001756F00017251800A5A
:103BE80000017559D8B00ED0780E0001636F000E31
:103BF8000001646F000E0001656FEFEC2AF00DD034
:103C080031D01ED0780E0001636F000E0001646F82
:103C1800010E0001656FEFEC2AF00009D8B422D03C
:103C280000017751010DF35000016C25D96EF45055
:103C380000016D21DA6E78C0DFFF02D013D000D00A
:103C48000001772B00D000016E510001775DD8A0EC
:103C5800A3D722EC36F00009D8B404D001D002D0A2
:103C6800010E1200000E120012000001A36F010ED7
:103C78000001A66F000E0001A26F600E0001A319DB
:103C8800D8B405D0610E0001A319D8A423D03F0EE3
:103C98000001996501D01ED03EEC3BF0A40E000156
:103CA8008A6F000E00018B6F520E97EC2AF0000904
:103CB800D8B473D001D071D0040E0001A41900014A
:103CC800A511D8B40BD0020E0001A4190001A5114A
:103CD800D8B404D0000E0001A66F5FD09E0E00017C
:103CE8008A6F000E00018B6F20EC21F00001A66F97
:103CF8000001A605D8A451D001D04FD09AC060F0D9
:103D08009BC061F09E0E0001626F000E0001636FA0
:103D1800040E0001646FDBEC37F09E0E00018A6F21
:103D2800000E00018B6F74EC1FF00001A66F0001FC
:103D3800A605D8A432D001D030D099C08AF097C057
:103D48008BF098C08CF09E0E00018D6F000E000164
:103D58008E6F0001A351EEEC1CF00001A66F00016C
:103D6800A605D8A41AD001D018D09CC08AF09DC04E
:103D78008BF000019951DBEC26F00001A66F0001E1
:103D8800A605D8A40AD002D008D004D0010E00019C
:103D9800A26F00D097EC30F000D0FCEC3EF00001B0
:103DA800A2511200120067C06BF068C06CF06BC0C3
:103DB80063F06CC064F0040E0001656F6FEC38F0BE
:103DC8000009D8A402D0000E12006BC060F06CC0CD
:103DD80061F0000E0001626F040E0001636FF8ECE1
:103DE80038F0E806D8A402D0010E120067C0D9FF47
:103DF80068C0DAFF230EDF6402D0000E1200000153
:103E080020EE01F06751D9266851DA22590EDF6495
:103E180002D0000E1200000120EE02F06751D926F0
:103E28006851DA22230EDF6402D0000E120000016E
:103E380020EE03F06751D9266851DA22590EDF6463
:103E480002D0000E120067C0D9FF68C0DAFF000177
:103E580010EE02F06751E1266851E222DE50E65C7E
:103E6800D8B002D0000E1200000120EE02F0675117
:103E7800D9266851DA2267C0E1FF68C0E2FFDE5048
:103E8800E65CD8B002D0010E1200000120EE01F06D
:103E98006751D9266851DA22000110EE03F0675104
:103EA800E1266851E222DE50E65CD8B002D0000E6E
:103EB8001200000120EE03F06751D9266851DA227A
:103EC800000110EE01F06751E1266851E222DE5050
:103ED800E65CD8B002D0010E1200000E12001200EB
:103EE800010E00018E6F000E0001916F000E00019F
:103EF800906F000E8F6F930E0101CD6F700E010150
:103F0800CE6F000E0101D36F000E0001916F030EFA
:103F18000001916501D030D000019151010DF3509D
:103F280000018A25D96EF45000018B21DA6E000158
:103F3800915100018C6F8D6B020E00018C27000ED1
:103F48008D23CD0E00018C25E16E010E00018D211F
:103F5800E26EDFCFE7FF00019151010DF350000140
:103F68008A25D96EF45000018B21DA6EDF500101E9
:103F7800D31B0001912BCBD7D40E0001756F010E16
:103F88000001766FCD0E0001776F010E0001786F8A
:103F9800070E0001796F53EC27F0080E0001716FCE
:103FA800080E41EC3DF0CD0E0001756F010E0001C9
:103FB800766F090E0001776FCD0E0001786F010E44
:103FC8000001796F8F0E00017A6F000E00017B6F80
:103FD8000C0E66EC11F000018E6F00018E05D8A45E
:103FE8000BD0180E00018F1900019011D8B404D01D
:103FF800000E00018E6F00D000018E5112001200D9
:1040080060EC34F00001956F000195510001D8B4BF
:1040180046D02CEC3DF0E806D8A403D0640E00018D
:10402800956F000E0001946F000E936F27D0980EC5
:104038000001816F000E0001826F93C083F094C06D
:1040480084F044EC31F00001985100018D1912E11F
:104058000001995100018E190DE100019A510001EA
:104068008F1908E100019B5100019019D8A402D0D2
:10407800010E12000001934B942B00D000019551C2
:104088000001916F926B000191510001935D000155
:10409800925100019459D8B03ED0C9D73CD02CECED
:1040A8003DF0E806D8A437D0000E0001976F000E47
:1040B800966F000197512FE1640E0001965DD8B00C
:1040C8002AD001D028D0980E0001816F000E00017F
:1040D800826F96C083F097C084F044EC31F0000101
:1040E800985100018D1912E10001995100018E19B2
:1040F8000DE100019A5100018F1908E100019B515F
:1041080000019019D8A402D0010E12000001964BAC
:10411800972BCFD700D0000E1200120021EEDFF04F
:1041280010EE11F00B0EDBCFE3FFE806FCE2365091
:104138001DEC3CF0366E600E3618D8A41200000E46
:10414800366E35501DEC3CF0356E600E3518D8A42F
:104158001200000E356E34501DEC3CF0346E240E07
:104168003418D8A41200000E346E33501DEC3CF005
:10417800336E325074EC3EF00C6E0C501F6E206A99
:10418800315074EC3EF00C6ED00E0C241D6E1E6A7D
:10419800070E1E221DC007F01EC008F090EC34F078
:1041A80007500810D8B408D0020E1F182010D8A441
:1041B80003D0290E126E00D0FF0E0C6EFF0E0D6E8E
:1041C8001FC00EF020C00FF00C500E260D500F220D
:1041D800110E0E24D96E000E0F20DA6EDF50106E0D
:1041E8001050216E226A21501DEC3CF00C6E0C50D0
:1041F800216E226A33500C6E0D6A21500C181BE197
:1042080022500D18D8A41200010E336E32501DEC46
:104218003CF0326E130E3218D8A41200010E326E22
:1042280031501DEC3CF0316E990E3118D8A41200B3
:10423800000E316E12001200010E0001906F000E88
:1042480000018D6F000E0001916F000E00018F6F4D
:10425800000E8E6F080E0001716F080E41EC3DF0E4
:10426800000E0001676F0D0EC0EC34F0800E0001E7
:10427800716F0E0E41EC3DF0930E0101CD6F200ED3
:104288000101CE6FCD0E0001756F010E0001766F32
:10429800020E0001776FCD0E0001786F010E00014C
:1042A800796F8E0E00017A6F000E00017B6F0C0E85
:1042B80066EC11F00001906F00019005D8A43FD082
:1042C800000E0001916F030E0001916501D025D009
:1042D80000019151010DCD0EF324D96E010EF42089
:1042E800DA6E00019151010DF35000018A25E16E4B
:1042F800F45000018B21E26EDFCFE7FF00019151FE
:10430800010DCD0EF324D96E010EF420DA6EDF50C4
:1043180000018D1B0001912BD6D700019151010D91
:10432800CD0EF324D96E010EF420DA6E00018D5102
:10433800DE18D8B404D0000E0001906F00D0800EB3
:104348000001716F0E0E59EC3AF000019051120005
:10435800120060C0D9FF61C0DAFF000110EE03F05F
:104368006251E1266351E222DE50E65CD8B002D009
:10437800000E1200000120EE03F06251D9266351AD
:10438800DA2260C0E1FF61C0E2FFDE50E65CD8A03F
:1043980017D001D015D0000120EE01F06051D926C8
:1043A8006151DA22000110EE04F06251E1266351F6
:1043B800E222DE50E65CD8B003D0000E120000D036
:1043C800000120EE03F06251D9266351DA22000180
:1043D80010EE02F06051E1266151E222DE50E65C07
:1043E800D8B002D0000E1200000120EE02F0605199
:1043F800D9266151DA22000110EE03F06251E1265C
:104408006351E222DE50E65CD8A02CD001D02AD03D
:10441800000120EE04F06251D9266351DA2200012E
:1044280010EE03F06051E1266151E222DE50E65CB5
:10443800D8B002D0000E1200000120EE03F0605147
:10444800D9266151DA22000110EE04F06251E1260A
:104458006351E222DE50E65CD8A004D001D002D03D
:10446800000E1200010E12001200E4EC3EF00009EA
:10447800D8A437D0030E1FEC03F0A90E0001916FEA
:10448800010E0001926FF70E0001936FFF0E0001FD
:10449800946F000193519411D8A4000E956FC50E26
:1044A8000001966FFF0E0001976F0001965197115A
:1044B800D8A4000E986F590E0001996FFF0E0001E5
:1044C8009A6F630E00019B6FFF0E00019C6F000145
:1044D8009B519C11D8A4000E9D6F6A0EDEEC2CF047
:1044E800120021EE99F000EE60F0050EDBCFEBFF35
:1044F800E806FCE282EC3EF001012051D8A404D089
:10450800010E0101206F00D09DEC39F0020E1FEC66
:1045180003F0A90E0001916F010E0001926FF70ED2
:104528000001936FFF0E0001946F000193519411E5
:10453800D8A4000E956FE30E0001966FFF0E0001E0
:10454800976F000196519711D8A4000E986F590ED5
:104558000001996FFF0E00019A6F650E00019B6FB5
:10456800FF0E00019C6F00019B519C11D8A4000E06
:104578009D6F680EDEEC2CF00101368312000001FD
:10458800FF51D8B4120064D0120062D073C0D9FFB2
:1045980074C0DAFF600EDE18D8B408D073C0D9FF33
:1045A80074C0DAFF610EDE18D8A4120073C0D9FFF8
:1045B80074C0DAFFDF500001FE6F1200EB0E00013D
:1045C800606F010E0001616F73C062F074C063F028
:1045D800060E0001646FDBEC37F01200010E1DECD3
:1045E80035F00001776F0001778977C067F0010E19
:1045F800C0EC34F01200010E1DEC35F00001776FAD
:104608000001779977C067F0010EC0EC34F0000E16
:104618000001616F320E606FB3EC3AF0120073C0A4
:1046280060F074C061F0FF0E0001626F000E0001BF
:10463800636F010E0001646FDBEC37F01200370E78
:104648001DEC35F073C0D9FF74C0DAFFDF6E1200BD
:1046580071C075F072C076F000017651CA0AD8A40C
:10466800120000017551010AD8B490D7030AD8B4D2
:10467800A5D7010AD8B4B2D7070AD8B4BCD7010A5B
:10468800D8B4CDD7030AD8A41200D9D71200000E87
:104698000001AD6F0001A72939E10001A829D8A4BC
:1046A80035D0BE0E0001926F000E0001936FC5EC6D
:1046B80032F00009D8B41DD00001AB510001AC1193
:1046C800D8B407D0ABC0D9FFACC0DAFF040EDF6E98
:1046D80000D0A9C060F0AAC061F0BE0E0001626FF0
:1046E800000E0001636F040E0001646FDBEC37F00D
:1046F8004CD00001AB510001AC11D8B44CD0ABC0C8
:10470800D9FFACC0DAFF000EDF6E45D00001A8511A
:1047180042E1400E0001A75DD8B03DD0EB0E00018C
:10472800976F010E0001986FA7C099F0BE0E0001A7
:104738009A6F000E00019B6FAE0E00019C6F000E79
:1047480000019D6F0001FE5139EC1EF00009D8B43C
:10475800D0D70001AB510001AC11D8B407D0ABC021
:10476800D9FFACC0DAFF100EDF6E00D0A9C060F030
:10477800AAC061F0AE0E0001626F000E0001636F07
:10478800100E0001646FDBEC37F0010E0001AD6F15
:1047980002D0AFD700D00001AD5112001200000EB8
:1047A80000016A6F000E696F000E00016E6F000E47
:1047B8006D6F000E00016C6F000E6B6F000E000134
:1047C800686FC00E0001616F010E606F000E00017E
:1047D800626F000E0001636F8EEC2CF0000E00017A
:1047E8006A6F000E696F00016A5121E10A0E00012B
:1047F800695DD8B01CD001D01AD0C00E0001616F1D
:10480800030E606F6D0E0001626F000E0001636F92
:104818008EEC2CF000016D5100016B2700016E51E8
:1048280000016C230001694B6A2BDDD700D06BC0F7
:1048380060F06CC061F0000E0001636F0A0E626FD9
:104848005BEC2FF060C06BF061C06CF0C00E000133
:10485800616F020E606F000E0001626F000E0001B2
:10486800636F8EEC2CF0000E0001616F640E606FB8
:10487800B3EC3AF0650E00016B5D020E00016C5955
:10488800D8B00ED0280E00016B5D020E00016C59E5
:10489800D8A002D0010E01D0020E0001686F00D02E
:1048A800000168511200120099C1B6F0E4EC3EF024
:1048B8000009D8A437D0A90E0001916F010E00019C
:1048C800926FF70E0001936FFF0E0001946F0001C5
:1048D80093519411D8A4000E956FC50E0001966FE0
:1048E800FF0E0001976F000196519711D8A4000E92
:1048F800986F510E0001996FFF0E00019A6F630EB9
:1049080000019B6FFF0E00019C6F00019B519C11E1
:10491800D8A4000E9D6F4A0EDEEC2CF0030E1FEC9F
:1049280003F01200B6C05CF101015C51D8A402D0BA
:10493800000E01D0010E01015B6F00D07DEC39F053
:104948009DEC39F0020E1FEC03F0A90E0001916FE7
:10495800010E0001926FF70E0001936FFF0E000128
:10496800946F000193519411D8A4000E956FE30E33
:104978000001966FFF0E0001976F00019651971185
:10498800D8A4000E986F510E0001996FFF0E000118
:104998009A6F650E00019B6FFF0E00019C6F00016E
:1049A8009B519C11D8A4000E9D6F480EDEEC2CF094
:1049B8001200000E0001776F000E766F000E0001E6
:1049C800756F000E0001786F000E0001746F000E05
:1049D8000001726F000E716F000E0001736FD3EC4F
:1049E80023F00001756F00017505D8B407D0020ED9
:1049F80000017519D8A402D0820E01D0640E0001FE
:104A0800786F00D0898A899818D0060E00016F6FD8
:104A1800300EE82EFED76F2FFCD700D00001764B62
:104A2800772BE90E0001765D030E00017759D8A0B7
:104A380004D0899A8998000E120081A2E6D7000E48
:104A48000001776F000E766F000178510001D8A43D
:104A580021D025D01FD0060E00016F6F300EE82E32
:104A6800FED76F2FFCD700D00001764B772B0001C3
:104A7800785100016F6F706B00016F510001765D16
:104A88000001705100017759D8A004D0010E00012F
:104A9800746F00D0000174510001D8B4DCD7899A32
:104AA8008998000E0001616F640E606FB3EC3AF0F4
:104AB800010E12001200000E0001696F000E686FEF
:104AC800000E00016D6F000E6C6F000E00016B6F21
:104AD800000E6A6FC00E0001616F010E606F000E5C
:104AE8000001626F000E0001636F8EEC2CF0000E67
:104AF8000001696F000E686F0001695121E10A0E1B
:104B08000001685DD8B01CD001D01AD0C00E0001D9
:104B1800616F030E606F6C0E0001626F000E000182
:104B2800636F8EEC2CF000016C5100016A270001C4
:104B38006D5100016B230001684B692BDDD700D054
:104B48006AC060F06BC061F0000E0001636F0A0E6E
:104B5800626F5BEC2FF060C06AF061C06BF0C00E52
:104B68000001616F020E606F000E0001626F000E9F
:104B78000001636F8EEC2CF0000E0001616F640E73
:104B8800606FB3EC3AF0650E00016A5D020E000139
:104B98006B59D8A002D0000E1200D60E00016A5D33
:104BA800010E00016B59D8B004D0030E0101046F47
:104BB80000D0010E12001200990E00017E6F010E46
:104BC80000017F6F9E0E00017C6F010E00017D6F5A
:104BD8007EC072F07FC073F044EC2BF00009D8A4BB
:104BE80002D0000E12007CC072F07DC073F044EC5D
:104BF8002BF00009D8A402D0000E12007EC060F08D
:104C08007FC061F0630E0001626F010E0001636FE7
:104C18002AEC1AF00001806F00018005D8B41ED07C
:104C280002D01CD008D0020E00018019D8B441D09F
:104C380002D03FD000D00101A35101016D5DD8A081
:104C48000DD001D00BD001016D510101A35DD8A099
:104C580030D025D02ED002D022D000D0D2EC30F0E7
:104C68000009D8B426D001D024D0010E496E21EE17
:104C780099F011EE63F0040EDBCFE3FFE806FCE2E7
:104C880021EE9EF011EE68F0040EDBCFE3FFE8069C
:104C9800FCE2A3C16DF17DEC39F0010E1200D2ECFB
:104CA80030F00009D8B405D002D003D000D0010EEE
:104CB8001200000E12001200000E0001CE6F1B0E33
:104CC8001FEC03F0070E0001616FD00E606FB3ECAC
:104CD8003AF0D6EC38F0A5EC3BF0070E0001616F16
:104CE800D00E606FB3EC3AF000D0000E0001C36F35
:104CF800030EC26FCA0E0001C46F000E0001C56F1B
:104D08002CEC2DF0E806D8A43DD023EC32F0E806D0
:104D1800D8A434D0990E0101A819D8A40FD01B0E1D
:104D28001FEC03F0030E0001616FE80E606FB3EC37
:104D38003AF0D5EC3BF0010E12002ED0960E010190
:104D4800A819D8A417D0070E1FEC03F05DEC39F0B2
:104D5800010E0001616FF40E606FB3EC3AF0010EC2
:104D680041EC37F0010E0001616FF40E606FB3EC97
:104D78003AF012D0140E1FEC03F00ED0140E1FECF4
:104D880003F00AD001010805D8A406D0BDEC3BF019
:104D9800000E0101086F00D0000E0001616F640E63
:104DA800606FB3EC3AF0A1D7000E120012000001B8
:104DB8008C6F010E00018D6F000E00018F6F000EC9
:104DC8008E6F000E0001906F3F0E00018C6502D0BF
:104DD800000E1200300E0101CD6F8CC0CEF1CF0E47
:104DE8000001756F010E0001766FCD0E0001776F1F
:104DF800010E0001786F020E0001796F53EC27F065
:104E0800CD0E0001756F010E0001766F040E0001D2
:104E1800776FCD0E0001786F010E0001796F8E0E4D
:104E280000017A6F000E00017B6F0C0E66EC11F02A
:104E380000018D6F00018D05D8A42DD0900E0001C2
:104E48008E1900018F11D8A422D0000E0001906F96
:104E58000F0E0001906501D01ED000019051010D88
:104E6800CD0EF324D96E010EF420DA6E00019051B4
:104E7800010DF35000018A25E16EF45000018B21E9
:104E8800E26EDFCFE7FF0001902BE2D704D0000EDF
:104E980000018D6F00D000018D5112001200000E2C
:104EA80000017D6F000E00017C6F000E00017B6F1A
:104EB800CC0E0001616F010E606F7BC062F07CEC6C
:104EC80031F0040E0001716F050E41EC3DF0000E4B
:104ED8000001676F010EC0EC34F0800E0001716FA5
:104EE8000A0E59EC3AF0000E00017D6F14D0000153
:104EF8007D51010DF35000017725D96EF450000162
:104F08007821DA6EDF500001676F090EC0EC34F0CB
:104F180000017D2B00D00001795100017D5DD8A0F2
:104F2800E6D7030E0001676F010EC0EC34F0000EE7
:104F380000017D6F00017D29D8B40FD001D00DD0BC
:104F4800050E1DEC35F000017C6F00017CB505D025
:104F580001D003D000017D2BEDD7220E1DEC35F0DA
:104F680075C0D9FF76C0DAFFDF6E210E1DEC35F073
:104F780000017A6F000120EE01F07551D9267651B3
:104F8800DA227AC0DFFF120074C0D9FF75C0DAFFD9
:104F9800DF500001796F000120EE01F07451D9262D
:104FA8007551DA22DF5000017A6F000120EE02F01D
:104FB8007451D9267551DA22DF5000017B6F000148
:104FC80020EE03F07451D9267551DA22DF50000122
:104FD8007C6F000E0001786F050E0001786501D026
:104FE80023D079C060F07AC061F07BC062F07CC0E9
:104FF80063F000017851010DF35000017625D96E58
:10500800F45000017721DA6EDF500001646F3AEC4A
:1050180028F060C079F061C07AF062C07BF063C0AC
:105028007CF00001782BD8D772C0D9FF73C0DAFFA3
:1050380079C0DFFF000120EE01F07251D9267351CB
:10504800DA227AC0DFFF000120EE02F07251D92681
:105058007351DA227BC0DFFF000120EE03F07251AA
:10506800D9267351DA227CC0DFFF1200000160519B
:105078000001641900016D6F0001615100016E6F3C
:105088000001625100016F6F000163510001706FF0
:10509800000E0001716F4AD04DD0010E00016D1550
:1050A8000001696F000E00016E1500016A6F000EA5
:1050B80000016F1500016B6F000E000170150001F3
:1050C8006C6F0001D89070336F336E336D3300010D
:1050D800695100016A1100016B1100016C11D8B40B
:1050E80023D03B0EF66EFF0EF76E000EF86E090029
:1050F800F5CF65F00900F5CF66F00900F5CF67F048
:105108000900F5CF68F00001655100016D1B000131
:10511800665100016E1B0001675100016F1B000101
:1051280068510001701B00D00001712B070E0001AF
:105138007165B3D76DC060F06EC061F06FC062F08A
:1051480070C063F012000001756F000E0001746FEB
:1051580000017505D8B407D0020E00017519D8B43E
:1051680002D0000E120000017505D8A411D06EC03F
:1051780064F06FC065F071C066F072C067F0700EC1
:105188000001686F000E0001696FB4EC31F015D0B2
:10519800020E00017519D8A43CD0410E00017061BF
:1051A8000FD06EC067F06FC068F071C069F072C050
:1051B8006AF070C06BF0EBEC2BF00001746F29D033
:1051C800010E0001746F000E0001736F18D06EC0DD
:1051D80067F06FC068F000017351010DF3500001D2
:1051E80071250001696FF4500001722100016A6F96
:1051F8001CEC30F0000174170001732B00D0000183
:1052080070510001735DD8A0E2D7000174511200FB
:1052180000D000017451120012000001806F010ECD
:1052280000017E6F00018005D8B407D0020E00018E
:105238008019D8B402D0000E120000018005D8A44D
:1052480012D079C062F07AC063F07CC064F07DC08F
:1052580065F07B0E0001666F000E0001676F31EC90
:1052680033F012003DD0020E00018019D8A438D0C6
:10527800410E00017B610ED079C06AF07AC06BF0F4
:105288007CC06CF07DC06DF07BC06EF096EC1DF0BC
:10529800120026D0000E00017F6F18D079C06AF086
:1052A8007AC06BF000017F51010DF35000017C259D
:1052B80000016C6FF45000017D2100016D6F3EEC20
:1052C8002CF000017E1700017F2B00D000017B51DC
:1052D80000017F5DD8A0E2D700017E51120000D006
:1052E80000017E5112001200000E0001B36F000190
:1052F800FF05D8B403D00001B35112000001A75133
:105308000001A811D8B452D00001A8514FE1400EB5
:105318000001A75DD8B04AD0030E0001A71500010F
:10532800AD6F000E0001A8150001AE6F030E00015D
:10533800AD190001AE11D8A402D0000E1200EB0E78
:105348000001976F010E0001986FA7C099F0AF0E8A
:1053580000019A6F000E00019B6FA9C09CF0AAC0C3
:105368009DF00001FE5142EC1CF00009D8B411D0A8
:105378000001AB510001AC11D8B407D0ABC0D9FFC4
:10538800ACC0DAFF100EDF6E00D0010E0001B36F63
:105398000DD00001AB510001AC11D8B407D0ABC09F
:1053A800D9FFACC0DAFF000EDF6E00D00001B351A8
:1053B80012001200000E0001D86F060ED76F000110
:1053C800D569D669000E0001C36F030EC26FD10EF6
:1053D8000001C46F000E0001C56F2CEC2DF0E8062B
:1053E800D8A41ED0D50E0001C26F000E0001C36FF5
:1053F800D10E0001C46F000E0001C56FD8EC14F087
:10540800C2C0D7F0C3C0D8F0670E0001D719000199
:10541800D811D8B407D001D005D0000E120002D0A0
:10542800000E1200990E0101A819D8A403D060EC4F
:1054380026F01BD0110E0101A819D8A403D0C1EC85
:1054480012F013D0200E0101A819D8A403D039EC0A
:1054580022F00BD0310E0101A819D8A403D0D6EC44
:1054680013F003D0000E120000D0010E120012003B
:105478009BEC3EF0EFEC34F035EC3CF0C00E000154
:10548800616F010E606F000E0001626F7CEC31F0FD
:105498000EEC3FF0C00E0001616F030E606F000E4E
:1054A8000001626F19EC37F0C00E0001616F010E48
:1054B800606F000E0001626F19EC37F00AEC3FF0E4
:1054C800C00E0001616F030E606F010E0001626F74
:1054D800F1EC36F0C00E0001616F010E606F000E36
:1054E8000001626FF1EC36F0000E0001616F000EF2
:1054F800606FB4EC38F0D0EC3AF0EDEC3EF029EC0B
:105508003EF077EC2DF0010E01010F6FBFEC3CF07F
:1055180049EC3EF059EC3BF0ABEC15F039EC3EF0C1
:10552800F28CF28E120000018C6F010E00018F6F59
:10553800000E0001916F000E906F080E0001716F50
:10554800080E41EC3DF0070E0001676F0D0EC0EC30
:1055580034F0030E0001716F140E59EC3AF08CC050
:10556800CDF1CD0E0001756F010E0001766F010EB1
:105578000001776FCD0E0001786F010E0001796F81
:10558800900E00017A6F000E00017B6F0C0E66EC26
:1055980011F000018F6F00018F05D8A418D0100EEC
:1055A8000001901900019111D8A40DD0CDC18DF042
:1055B800CEC18EF08AC0D9FF8BC0DAFF8DC0DEFF66
:1055C8008EC0DDFF04D0000E00018F6F00D00001F7
:1055D8008F5112001200000E0001676F000E666FF7
:1055E800000E0001696F00016551010B0001686F31
:1055F800C8EC36F00009D8A402D0000E1200C58607
:1056080096EC3AF00009D8A408D0010E396EE00EE5
:105618003B6E050E3A6E000E1200C8EC36F000091B
:10562800D8A402D0000E1200C9CF69F0000168B1F9
:1056380002D0C59A01D0C58AC58817D00D0EE82EAC
:10564800FED700F00001664B672B100E0001665D67
:10565800270E00016759D8A008D0010E396EE00E58
:105668003B6E040E3A6E000E1200C5B8E7D763C051
:10567800D9FF64C0DAFF69C0DFFF010E1200120013
:1056880072C074F073C075F074C063F075C064F0D4
:10569800050E0001656F6FEC38F00009D8A402D040
:1056A800000E120072C0D9FF73C0DAFFDF5000018C
:1056B800766F000120EE01F07251D9267351DA227B
:1056C800DF500001776F000120EE02F07251D926F9
:1056D8007351DA22DF500001786F000120EE03F0E9
:1056E8007251D9267351DA22DF500001796F000117
:1056F80020EE04F07251D9267351DA22DF500001EE
:105708007A6F000E00017B6F760E0001676F000E46
:105718000001686FF6EC17F00009D8A402D0000E5B
:105728001200010E12001200000E00016C6F4CEC0A
:1057380036F00009D8B446D001D044D0000E00019C
:10574800636F3750A3EC35F00009D8B43BD001D0D3
:1057580039D038509FEC36F00009D8B433D001D096
:1057680031D0F8EC35F00009D8B42CD001D02AD0CB
:10577800010E0001636F3750A3EC35F00009D8B46F
:1057880021D001D01FD06C0E0001636F000E000104
:10579800646F010E0001656FEFEC2AF00009D8B4C0
:1057A80011D001D00FD022EC36F00009D8B40AD0BD
:1057B80001D008D06AC0D9FF6BC0DAFF6CC0DFFF28
:1057C800010E12001AEC39F0000E12001200A00EA1
:1057D80000016C6F4CEC36F00009D8B448D001D009
:1057E80046D000016C519FEC36F00009D8B43FD088
:1057F80001D03DD0000168519FEC36F00009D8B4C3
:1058080036D001D034D0000167519FEC36F0000942
:10581800D8B42DD001D02BD0000E00016D6F16D05A
:1058280000016D51010DF35000016925D96EF45046
:1058380000016A21DA6EDF509FEC36F00009D8B417
:1058480016D001D014D000016D2B00D000016B518F
:1058580000016D5DD8A0E4D722EC36F00009D8B479
:1058680006D001D004D0BDEC39F0010E1200000EB4
:1058780012001200A00E00016E6F4CEC36F0000909
:10588800D8B445D001D043D000016E519FEC36F01A
:105898000009D8B43CD001D03AD000016B519FEC3C
:1058A80036F00009D8B433D001D031D000016A51A4
:1058B8009FEC36F00009D8B42AD001D028D04CEC9F
:1058C80036F00009D8B423D001D021D000016E51A0
:1058D80001099FEC36F00009D8B419D001D017D0CF
:1058E8006CC063F06DC064F0010E0001656FEFECF1
:1058F8002AF00009D8B40BD001D009D022EC36F038
:105908000009D8B404D001D002D0010E1200000E54
:105918001200120039D0C2801200C290120062C078
:10592800D9FF63C0DAFF000EDE6E000EDD6EC282A4
:1059380000D0C2B2FED7C4500001656F646B62C06C
:10594800D9FF63C0DAFF64C0DEFF65C0DDFF62C057
:10595800D9FF63C0DAFFDECF64F0DDCF65F0C35056
:105968000001666F676B0001645100016627000142
:1059780065510001672362C0D9FF63C0DAFF66C0C2
:10598800DEFF67C0DDFF120060C064F061C065F033
:1059980000016551C00AD8A4120000016451010A2F
:1059A800D8B4B9D7030AD8B4B8D7010AD8A4120012
:1059B800B6D7120000019E6F00019E29D8B41200CC
:1059C80000019E510001D8B412009EC052F0BCECF8
:1059D8003EF0800E01010119D8A402D0538202D0F2
:1059E800539200D001010405D8A403D03F0E5316EA
:1059F80005D053503F0B4009536E00D091C0D9FFDA
:105A080092C0DAFFDF50546E000120EE01F0915190
:105A1800D9269251DA22DF50556E560E0001636F77
:105A2800000E0001646F20EE31F000EE65F0050E07
:105A3800DBCFEBFFE806FCE2DFEC1AF0520E0001C8
:105A48008D6F000E00018E6FEDEC3BF0120012001E
:105A5800000E0001C86F000E0001C96F000E0001A2
:105A6800C76F000EC66F31D0FCEC39F0C4C060F0CF
:105A7800C5C061F0FF0E0001626F040E0001636F84
:105A880008EC3BF0FF0E0001A86FA769C4C0A9F09D
:105A9800C5C0AAF0C90E0001AB6F000E0001AC6FC3
:105AA8004BEC23F00001C86F000E0001616F320E4D
:105AB800606FB3EC3AF00001C805D8B410D001D03B
:105AC8000ED00001C64BC72B00D00001C251000107
:105AD800C65D0001C3510001C759D8A0C5D7000150
