:0400000080312628FD
:10000800803120007F08F4008B190B1C10288F31D9
:10001800AA2780310B1022282100111C1A28200041
:10002800111C1A2887314A27803122282100911D66
:1000380022282000911D22288F315F277408200074
:10004800FF00090080312828F501F601F701F801C1
:10005800203084000030850018308D31F42580313F
:100068008731FF27F90020008731882FDD2D8D315A
:10007800E825803122000E1400302000B800B900B5
:100088008E31E626803105302000B8000030B900F6
:100098008E31B126803122000E1001302000B800C8
:1000A8000030B9008E31E626803105302000B800D6
:1000B8000030B9008E31B12608008D31E825803135
:1000C8002000C00103304002031808000030B800C7
:1000D800B9008E31E626803122008E14643020006B
:1000E800B8000030B9008E31B126803101302000CF
:1000F800B8000030B9008E31E626803122008E101B
:100108000A302000B8000030B9008E31B1268031A5
:1001180001302000BE003E08C00766288D31E82562
:1001280080312000C001023040020318080000306E
:10013800B800B9008E31E626803122000E14C8308E
:100148002000B8000030B9008E31B126803101306E
:100158002000B8000030B9008E31E6268031220038
:100168000E1032302000B8000030B9008E31B126B0
:10017800803101302000BE003E08C00797288D312D
:10018800E82580312000C0010A3040020318080029
:100198000030B800B9008E31E626803122000C15F7
:1001A80064302000B8000030B9008E31B1268031AB
:1001B80001302000B8000030B9008E31E6268031C9
:1001C80022000C1164302000B8000030B9008E31D4
:1001D800B126803101302000BE003E08C007C82883
:1001E8008D31E82580312000C0010330400203181A
:1001F80008000030B800B9008E31E62680312200B0
:100208008E140E1420302000B8000330B9008E314F
:10021800B126803101302000B8000030B9008E319D
:10022800E626803122008E100E10C8302000B8005B
:100238000030B9008E31B126803101302000BE0077
:100248003E08C007F9288D31E825803100302000AC
:10025800B800B9008E31E6268031C8302000B800D9
:100268000030B9008E31B126803101302000B8004D
:100278000030B9008E31E62608008D31E82580313E
:1002880000302000B800B9008E31E6268031220007
:100298000E1464302000B8000030B9008E31B12649
:1002A800803101302000B8000030B9008E31E626D8
:1002B800803122000E1032302000B8000030B90022
:1002C8008E31B12608008D31E82580312000C0012B
:1002D80006304002031808000030B800B9008E311B
:1002E800E626803122008E140E1496302000B800C5
:1002F8000030B9008E31B126803101302000B800BD
:100308000030B9008E31E626803122008E100E10A2
:100318001E302000B8000030B9008E31B12680317F
:1003280001302000BE003E08C0076C298D31E82549
:1003380080312000C001043040020318080000305A
:10034800B800B9008E31E626803122008E140E14D2
:1003580096302000B8000030B9008E31B1268031C7
:1003680001302000B8000030B9008E31E626803117
:1003780022008E100E101E302000B8000030B90088
:100388008E31B126803101302000BE003E08C00702
:100398009F298D31E82580312000C00103304002BB
:1003A800031808000030B800B9008E31E626803105
:1003B80022008E140E1496302000B8000030B900C8
:1003C8008E31B126803101302000B8000030B900EC
:1003D8008E31E626803122008E100E101E3020004D
:1003E800B8000030B9008E31B126803101302000CC
:1003F800BE003E08C007D2298D31E8258031003083
:100408002000B800B9008E31E626803122000E1493
:100418002C302000B8000130B9008E31B12680316F
:1004280001302000B8000030B9008E31E626803156
:1004380022000E10C8302000B8000030B9008E31FC
:10044800B12680312000C0010230400203180800A4
:100458000030B800B9008E31E626803122000E1433
:1004680096302000B8000030B9008E31B1268031B6
:1004780001302000B8000030B9008E31E626803106
:1004880022000E1032302000B8000030B9008E3142
:10049800B126803101302000BE003E08C007282A5E
:1004A8008D31E82580312000C00102304002031858
:1004B800882A0030B800B9008E31E6268031220043
:1004C8008E14C8302000B8000030B9008E31B12633
:1004D800803101302000B8000030B9008E31E626A6
:1004E800803122008E103C302000B8000030B90066
:1004F8008E31B126803101302000BE003E08C00791
:1005080002304002031C5D2AC00102304002031879
:1005180008000030B800B9008E31E626803122008C
:100528008E1064302000B8000030B9008E31B1263A
:10053800803101302000B8000030B9008E31E62645
:10054800803122008E1014302000B8000030B9002D
:100558008E31B126803101302000BE003E08C00730
:10056800892A8D31E82580312000C00104304002FD
:10057800031808000030B800B9008E31E626803133
:1005880022008E14C8302000B8000030B9008E3127
:10059800B126803101302000B8000030B9008E311A
:1005A800E626803122008E101E302000B800003070
:1005B800B9008E31B126803101302000BE003E08DE
:1005C800C007BA2A8D31E82580312000C0010330E8
:1005D8004002031808000030B800B9008E31E62642
:1005E800803122008E14C8302000B8000030B900D5
:1005F8008E31B126803101302000B8000030B900BA
:100608008E31E626803122008E101E302000B80080
:100618000030B9008E31B126803101302000BE0093
:100628003E08C007EB2A8D31E82580312000C00143
:100638004008031D452B0030B800B9008E31E6266E
:100648008031C8302000B8000030B9008E31B126A2
:10065800803101302000B8000030B9008E31E62624
:1006680080311E302000B8000030B9008E31B1262C
:10067800803101302000BE003E08C0074008031941
:100688001F2BC00103304002031808000030B800D7
:10069800B9008E31E626803164302000B800003081
:1006A800B9008E31B126803101302000B800003009
:1006B800B9008E31E626803114302000B8000030B1
:1006C800B9008E31B126803101302000BE003E08CD
:1006D800C007462B8D31E82580312000C001400835
:1006E800031DA02B0030B800B9008E31E6268031FA
:1006F80022008E14C8302000B8000030B9008E31B6
:10070800B126803101302000B8000030B9008E31A8
:10071800E626803122008E103C302000B8000030E0
:10072800B9008E31B126803101302000BE003E086C
:10073800C00740080319762BC00102304002031895
:1007480008000030B800B9008E31E626803122005A
:100758008E1464302000B8000030B9008E31B12604
:10076800803101302000B8000030B9008E31E62613
:10077800803122008E1014302000B8000030B900FB
:100788008E31B126803101302000BE003E08C007FE
:10079800A12B8D31E82580312000C00105304002B1
:1007A800031808000030B800B9008E31E626803101
:1007B80022008E140E1496302000B8000030B900C4
:1007C8008E31B126803101302000B8000030B900E8
:1007D8008E31E626803122008E100E101E30200049
:1007E800B8000030B9008E31B126803101302000C8
:1007F800BE003E08C007D22B8D31E825803120008D
:10080800C00102304002031808000030B800B900E7
:100818008E31E626803122008E14C8302000B800C0
:100828000030B9008E31B126803101302000B80087
:100838000030B9008E31E626803122008E103C301F
:100848002000B8000030B9008E31B1268031013067
:100858002000BE003E08C007052C8D31E8258031F8
:100868002000C0014008031D08000030B800B9008E
:100878008E31E626803122008E14C8302000B80060
:100888000030B9008E31B126803101302000B80027
:100898000030B9008E31E626803122008E103C30BF
:1008A8002000B8000030B9008E31B1268031013007
:1008B8002000BE003E08C007362C8D31E825803167
:1008C80000302000B800B9008E31E62680312200C1
:1008D8008E14C8302000B8000030B9008E31B1261F
:1008E800803101302000B8000030B9008E31E62692
:1008F800803122008E101E302000B8000030B90070
:100908008E31B126803100302000B800B9008E3118
:10091800E626803122008E1464302000B8000030B2
:10092800B9008E31B126803101302000B800003086
:10093800B9008E31E626803122008E101430200056
:10094800B8000030B9008E31B12608008D31E82595
:1009580080312000C0010330400203180800003035
:10096800B800B9008E31E626803122008E14C830D6
:100978002000B8000030B9008E31B1268031013036
:100988002000B8000030B9008E31E6268031220000
:100998008E1014302000B8000030B9008E31B12616
:1009A800803101302000BE003E08C007AF2C8D31D9
:1009B800E82580312000C0010230400203180F2DC5
:1009C8000030B800B9008E31E626803122008E143E
:1009D80064302000B8000030B9008E31B126803173
:1009E80001302000B8000030B9008E31E626803191
:1009F80022008E1032302000B8000030B9008E314D
:100A0800B126803101302000BE003E08C007023008
:100A18004002031CE42C6430B8000030B9008E3169
:100A2800B126803100302000B800B9008E31E626AA
:100A3800803122008E14C8302000B8000030B90080
:100A48008E31B126803101302000B8000030B90065
:100A58008E31E626803122008E101E302000B8002C
:100A68000030B9008E31B12608008D31E82580317B
:100A78002000C00104304002031808000030B8000C
:100A8800B9008E31E626803122008E1464302000B1
:100A9800B8000030B9008E31B12680310130200015
:100AA800B8000030B9008E31E626803122008E1061
:100AB8000A302000B8000030B9008E31B1268031EC
:100AC80001302000BE003E08C0073E2D8D31E825CC
:100AD80080312000C00102304002031808000030B5
:100AE800B800B9008E31E626803122000E14643039
:100AF8002000B8000030B9008E31B12680310130B5
:100B08002000B8000030B9008E31E626803122007E
:100B18000E100A302000B8000030B9008E31B1261E
:100B2800803101302000BE003E08C0076F2D8D3196
:100B3800E82580312000C001033040020318080076
:100B4800BF0102303F020318D02D0030B800B900B1
:100B58008E31E626803164302000B8000030B900BC
:100B68008E31B126803101302000B8000030B90044
:100B78008E31E626803132302000B8000030B900CE
:100B88008E31B126803101302000BE003E08BF07FB
:100B980002303F02031CA92D5830B8000230B900BA
:100BA8008E31B126803101302000BE003E08C007DA
:100BB800A02D20003108FF3E031C080084001B30D4
:100BC80004020318080088310435003E820008003A
:100BD800F22E8D31E22585312000C1010A30410213
:100BE8000318080022000C1502302000C0008630CF
:100BF800BF009930BE00BE0BFF2DBF0BFF2DC00BF1
:100C0800FF2D22000C1102302000C0000430BF006C
:100C1800BA30BE00BE0B0E2EBF0B0E2EC00B0E2E12
:100C2800000001302000BE003E08C107F22D8D31C2
:100C3800E22522000C118E100E100E1108008D31C5
:100C4800E22585312000C101033041020318532EEB
:100C580022000C1502302000C0008630BF009930F9
:100C6800BE00BE0B352EBF0B352EC00B352E220015
:100C78000C1102302000C0008630BF009930BE0041
:100C8800BE0B442EBF0B442EC00B442E0130200057
:100C9800BE003E08C10703304102031C2C2EC83099
:100CA800B8000030B9008E31B12685312000C1016D
:100CB800033041020318872E22008E1402302000D0
:100CC800C0008630BF009930BE00BE0B692EBF0B36
:100CD800692EC00B692E22008E1002302000C00041
:100CE8008630BF009930BE00BE0B782EBF0B782E21
:100CF800C00B782E01302000BE003E08C10703302B
:100D08004102031C602EC830B8000030B9008E3193
:100D1800B12685312000C101033041020318BB2EE2
:100D280022000E1402302000C0008630BF00993027
:100D3800BE00BE0B9D2EBF0B9D2EC00B9D2E22000C
:100D48000E1002302000C0008630BF009930BE006F
:100D5800BE0BAC2EBF0BAC2EC00BAC2E013020004E
:100D6800BE003E08C10703304102031C942EC83060
:100D7800B8000030B9008E31B12685312000C1019C
:100D8800033041020318080022000E15023020002B
:100D9800C0008630BF009930BE00BE0BD12EBF0BFD
:100DA800D12EC00BD12E22000E1102302000C0001F
:100DB8008630BF009930BE00BE0BE02EBF0BE02E80
:100DC800C00BE02E01302000BE003E08C107C42E33
:100DD8008D31E225043022008E06080020002D08FF
:100DE800103A0319ED2D013A03191B2E033A031982
:100DF800232E013A0319EC2E012F0800F1003B2F96
:100E08002000B701B70A08007908F0007008F70059
:100E1800282F7908F00077082D3E86008701700892
:100E280081000130F0007008F7070A307702031CD0
:100E3800282FF701282F20003708003A03190D2F13
:100E4800013A0319082F0D2FB701080077082D3E26
:100E5800860087010108240091000130F000700825
:100E6800F7070A307702031C0800F7010800710829
:100E7800003A0319042F013A03192A2F033A0319D8
:100E88001F2F013A0319492F492F0800200011107C
:100E980076089700750896002403031D5F2F01301C
:100EA800F0007008A50705302502031C5F2FA50177
:100EB800013022008E0620002603031D712F013009
:100EC800F0007008A70705302702031C712FA7013F
:100ED800013022008E0602308E0620002A03031DF0
:100EE80008000130F0007008AB0705302B02031C26
:100EF8000800AB01043022008C0601308E06023057
:100F08008E0604308E0608008F31402787318D31D8
:100F1800DD25873122008E1320002008031DB02F05
:100F28008D31D82587318E31812687318531EC2561
:100F3800873180313A2087318E31982687312000D9
:100F48002103031D902FA1018E312B26873120000C
:100F58002203031D902FC32F22008E138D31DD2510
:100F6800873163000000000020002103031DB52F16
:100F78008731C527873120002203031DB52FA20121
:100F88008B2F2000C501C6018E312B26873120000A
:100F98002008031DFC2F8D31D82587318E318126FD
:100FA80087318531EC25873180313A2087318E3180
:100FB8003A26873188302000C3001330C40001303E
:100FC800B8000030B9008E31B126873101302000D9
:100FD800C5070030C63D46084402031DF52F4508E5
:100FE80043020318CB2F0130C2004208A000CB2FC8
:100FF8008F31D4270800553480313B28803192281E
:1010080080316128813127298031F4288031C32833
:10101800813141298131672981319A298131CD294D
:101028008231002A8231542A8231E62A8231B52A55
:101038008431002C8531EB2D8431612C8531EB2DE9
:101048008331172B83316E2B8331CD2B8431312C97
:101058008431AA2C8431DB2C8531392D85316A2DD8
:0410680085319B2D06
:101B960020001810080020001C110800200018144E
:101BA600080020009A011C1508002400151F0800D3
:101BB600151308008F3104272000A0010800FF300C
:101BC6002000B8003808AD000800FF302000B8003B
:101BD6003808B10008007230210099009A01980176
:101BE6000800640080010131890BF52D00342200C4
:101BF6000C118E100E100E118E1108007B30200075
:101C06009C0030309B009A019110080001302000A2
:101C1600B8000030B9008E31E62622008E12080088
:101C260027001412941214139417111600308E31D3
:101C3600CB2608000C3025009300950180309400D7
:101C460001309600193091009201FC309E05080083
:101C560022008E1701308E31CB268E318D31D8255C
:101C66008E318F3122278E318D31DD2508002000FF
:101C76003403031D08000130B8003808A200013003
:101C8600B8003808A000FF30B8003808B4000800D3
:101C9600240094012630950096019701FE309300AA
:101CA600103092008E316E26200091112100911580
:101CB600080030302000980099019E309700583077
:101CC60096001708F6001608F500111021001114E9
:101CD6008D31D12508002000B9010A3039020318D8
:101CE6000800FF30B80039082D3E86008701380805
:101CF60081000130B8003808B907702E20002E0385
:101D0600031D8E2E0130B8003808A000FF30B80041
:101D16003808AE00080002302E06031D0800A00198
:101D2600FF30B8003808AE00080020003503031D58
:101D3600080022008E131A302000BC00F830BB00C9
:101D4600BB0BA32EBC0BA32E000000308E31CB267E
:101D5600FF302000BB003B08B50008002000BC0196
:101D6600BD0139083D02031DBA2E38083C0203188E
:101D760008000330BB009730BA00BA0BC02EBB0B6D
:101D8600C02E003201302000BC070030BD3DB42E0D
:101D96002000BA00DD2E0D080C088B150330B900A3
:101DA6009730B800B80BD52EB90BD52E00320800E7
:101DB6008B1108003A08003A0319CE2E013A03198E
:101DC600DB2EE52E0800F52E8D31D42525001308CF
:101DD600F0390C38930008008D31CE25F0302500FF
:101DE6009305080020003908003A0319FB2E032F3B
:101DF6003808003A0319E72E013A0319EF2E032F8C
:101E06000800FF302000B8003808AD00FF30B800E9
:101E16003808AE00FF30B8003808AF00FF30B80011
:101E26003808B000FF30B8003808B100FF30B800FD
:101E36003808B200FF30B8003808B30008002100A7
:101E46000C1222000C120C161A302000B900F830C1
:101E5600B800B80B2C2FB90B2C2F000022000C1247
:101E660082302000B900DD30B800B80B382FB90B2E
:101E7600382F003221000C1608008D31EE258F31E7
:101E86008F3181278F318E3113268F318E314B263C
:101E96008F318E315C268F318E3101268F318E3116
:101EA6001D268F3101302000B8000030B9008E3178
:101EB600E6260B178B1708005530F2007208F30060
:101EC6002000911124001108F2007208F300141D7D
:101ED600732F941A161F712F03307C2F01307C2F1D
:101EE600941A772F00307C2F7308F2007208F900DD
:101EF60002308731022724001516080021000D162E
:101F06000D1723008D0121008D1222008D16210050
:101F16008E1322008E1721008D170C1623000C122B
:101F260021000E1322000E1321008E1122008E11A5
:101F360021000C110E108E100E1122000C118E10A5
:101F46000E100E1121008E1222008E120800033090
:101F5600F1009730F000F00BAE2FF10BAE2F0032F0
:101F66002700941B961FC02F20008D1FC02F013005
:101F7600F0007008A100270096132700111A131EFF
:101F8600CD2F20000C1ECD2F0130F0007008A900C7
:101F96002700131220000D080C08270013129613B1
:101FA600080020002403031DDD2F8D31CB258F3142
:101FB6002000A4012603031DE52F8D31CB258F318B
:101FC6002000A6018D31E2258F318D31FA258F3122
:101FD6008E3109268F3122008E131A302000BC0064
:101FE600F830BB00BB0BF52FBC0BF52F0000003003
:101FF6008E31CB262000A10108003134283431343B
:1020060030343134303431343134303431343034A6
:02201600313463
:020000040001F9
:04000E00A4D9FFDE94
:00000001FF
